{"abi":[{"type":"function","name":"allowance","inputs":[{"name":"owner","type":"address","internalType":"address"},{"name":"spender","type":"address","internalType":"address"}],"outputs":[{"name":"","type":"uint256","internalType":"uint256"}],"stateMutability":"view"},{"type":"function","name":"allowances","inputs":[{"name":"","type":"address","internalType":"address"},{"name":"","type":"address","internalType":"address"}],"outputs":[{"name":"","type":"uint256","internalType":"uint256"}],"stateMutability":"view"},{"type":"function","name":"approve","inputs":[{"name":"spender","type":"address","internalType":"address"},{"name":"amount","type":"uint256","internalType":"uint256"}],"outputs":[{"name":"","type":"bool","internalType":"bool"}],"stateMutability":"nonpayable"},{"type":"function","name":"balanceOf","inputs":[{"name":"account","type":"address","internalType":"address"}],"outputs":[{"name":"","type":"uint256","internalType":"uint256"}],"stateMutability":"view"},{"type":"function","name":"balances","inputs":[{"name":"","type":"address","internalType":"address"}],"outputs":[{"name":"","type":"uint256","internalType":"uint256"}],"stateMutability":"view"},{"type":"function","name":"decimals","inputs":[],"outputs":[{"name":"","type":"uint8","internalType":"uint8"}],"stateMutability":"view"},{"type":"function","name":"mint","inputs":[{"name":"to","type":"address","internalType":"address"},{"name":"amount","type":"uint256","internalType":"uint256"}],"outputs":[],"stateMutability":"nonpayable"},{"type":"function","name":"transfer","inputs":[{"name":"recipient","type":"address","internalType":"address"},{"name":"amount","type":"uint256","internalType":"uint256"}],"outputs":[{"name":"","type":"bool","internalType":"bool"}],"stateMutability":"nonpayable"},{"type":"function","name":"transferFrom","inputs":[{"name":"sender","type":"address","internalType":"address"},{"name":"recipient","type":"address","internalType":"address"},{"name":"amount","type":"uint256","internalType":"uint256"}],"outputs":[{"name":"","type":"bool","internalType":"bool"}],"stateMutability":"nonpayable"}],"bytecode":{"object":"0x6080604052348015600e575f5ffd5b506105688061001c5f395ff3fe608060405234801561000f575f5ffd5b5060043610610090575f3560e01c806340c10f191161006357806340c10f191461010b57806355b6ed5c1461012057806370a082311461014a578063a9059cbb14610172578063dd62ed3e14610185575f5ffd5b8063095ea7b31461009457806323b872dd146100bc57806327e235e3146100cf578063313ce567146100fc575b5f5ffd5b6100a76100a2366004610445565b6101bd565b60405190151581526020015b60405180910390f35b6100a76100ca36600461046d565b6101ea565b6100ee6100dd3660046104a7565b5f6020819052908152604090205481565b6040519081526020016100b3565b604051601281526020016100b3565b61011e610119366004610445565b61034d565b005b6100ee61012e3660046104c7565b600160209081525f928352604080842090915290825290205481565b6100ee6101583660046104a7565b6001600160a01b03165f9081526020819052604090205490565b6100a7610180366004610445565b61037d565b6100ee6101933660046104c7565b6001600160a01b039182165f90815260016020908152604080832093909416825291909152205490565b335f9081526001602081815260408084206001600160a01b03871685529091529091208290555b92915050565b6001600160a01b0383165f9081526020819052604081205482111561024d5760405162461bcd60e51b8152602060048201526014602482015273496e73756666696369656e742062616c616e636560601b60448201526064015b60405180910390fd5b6001600160a01b0384165f9081526001602090815260408083203384529091529020548211156102b45760405162461bcd60e51b8152602060048201526012602482015271105b1b1bddd85b98d948195e18d95959195960721b6044820152606401610244565b6001600160a01b0384165f90815260208190526040812080548492906102db90849061050c565b90915550506001600160a01b0383165f908152602081905260408120805484929061030790849061051f565b90915550506001600160a01b0384165f9081526001602090815260408083203384529091528120805484929061033e90849061050c565b90915550600195945050505050565b6001600160a01b0382165f908152602081905260408120805483929061037490849061051f565b90915550505050565b335f908152602081905260408120548211156103d25760405162461bcd60e51b8152602060048201526014602482015273496e73756666696369656e742062616c616e636560601b6044820152606401610244565b335f90815260208190526040812080548492906103f090849061050c565b90915550506001600160a01b0383165f908152602081905260408120805484929061041c90849061051f565b909155506001949350505050565b80356001600160a01b0381168114610440575f5ffd5b919050565b5f5f60408385031215610456575f5ffd5b61045f8361042a565b946020939093013593505050565b5f5f5f6060848603121561047f575f5ffd5b6104888461042a565b92506104966020850161042a565b929592945050506040919091013590565b5f602082840312156104b7575f5ffd5b6104c08261042a565b9392505050565b5f5f604083850312156104d8575f5ffd5b6104e18361042a565b91506104ef6020840161042a565b90509250929050565b634e487b7160e01b5f52601160045260245ffd5b818103818111156101e4576101e46104f8565b808201808211156101e4576101e46104f856fea26469706673582212207c3a304939984f128a17b3cee91b67d24fa47d22a4c5f8387ee97fe941d79e8264736f6c634300081c0033","linkReferences":{}},"methodIdentifiers":{"allowance(address,address)":"dd62ed3e","allowances(address,address)":"55b6ed5c","approve(address,uint256)":"095ea7b3","balanceOf(address)":"70a08231","balances(address)":"27e235e3","decimals()":"313ce567","mint(address,uint256)":"40c10f19","transfer(address,uint256)":"a9059cbb","transferFrom(address,address,uint256)":"23b872dd"},"id":39}