{"abi":[{"type":"function","name":"allowance","inputs":[{"name":"owner","type":"address","internalType":"address"},{"name":"spender","type":"address","internalType":"address"}],"outputs":[{"name":"","type":"uint256","internalType":"uint256"}],"stateMutability":"view"},{"type":"function","name":"allowances","inputs":[{"name":"","type":"address","internalType":"address"},{"name":"","type":"address","internalType":"address"}],"outputs":[{"name":"","type":"uint256","internalType":"uint256"}],"stateMutability":"view"},{"type":"function","name":"approve","inputs":[{"name":"spender","type":"address","internalType":"address"},{"name":"amount","type":"uint256","internalType":"uint256"}],"outputs":[{"name":"","type":"bool","internalType":"bool"}],"stateMutability":"nonpayable"},{"type":"function","name":"balanceOf","inputs":[{"name":"account","type":"address","internalType":"address"}],"outputs":[{"name":"","type":"uint256","internalType":"uint256"}],"stateMutability":"view"},{"type":"function","name":"balances","inputs":[{"name":"","type":"address","internalType":"address"}],"outputs":[{"name":"","type":"uint256","internalType":"uint256"}],"stateMutability":"view"},{"type":"function","name":"decimals","inputs":[],"outputs":[{"name":"","type":"uint8","internalType":"uint8"}],"stateMutability":"view"},{"type":"function","name":"mint","inputs":[{"name":"to","type":"address","internalType":"address"},{"name":"amount","type":"uint256","internalType":"uint256"}],"outputs":[],"stateMutability":"nonpayable"},{"type":"function","name":"transfer","inputs":[{"name":"recipient","type":"address","internalType":"address"},{"name":"amount","type":"uint256","internalType":"uint256"}],"outputs":[{"name":"","type":"bool","internalType":"bool"}],"stateMutability":"nonpayable"},{"type":"function","name":"transferFrom","inputs":[{"name":"sender","type":"address","internalType":"address"},{"name":"recipient","type":"address","internalType":"address"},{"name":"amount","type":"uint256","internalType":"uint256"}],"outputs":[{"name":"","type":"bool","internalType":"bool"}],"stateMutability":"nonpayable"}],"bytecode":{"object":"0x6080604052348015600e575f5ffd5b50610b668061001c5f395ff3fe608060405234801561000f575f5ffd5b5060043610610091575f3560e01c806340c10f191161006457806340c10f191461014357806355b6ed5c1461015f57806370a082311461018f578063a9059cbb146101bf578063dd62ed3e146101ef57610091565b8063095ea7b31461009557806323b872dd146100c557806327e235e3146100f5578063313ce56714610125575b5f5ffd5b6100af60048036038101906100aa9190610837565b61021f565b6040516100bc919061088f565b60405180910390f35b6100df60048036038101906100da91906108a8565b6102a7565b6040516100ec919061088f565b60405180910390f35b61010f600480360381019061010a91906108f8565b61051f565b60405161011c9190610932565b60405180910390f35b61012d610533565b60405161013a9190610966565b60405180910390f35b61015d60048036038101906101589190610837565b61053b565b005b6101796004803603810190610174919061097f565b610591565b6040516101869190610932565b60405180910390f35b6101a960048036038101906101a491906108f8565b6105b1565b6040516101b69190610932565b60405180910390f35b6101d960048036038101906101d49190610837565b6105f6565b6040516101e6919061088f565b60405180910390f35b6102096004803603810190610204919061097f565b610724565b6040516102169190610932565b60405180910390f35b5f8160015f3373ffffffffffffffffffffffffffffffffffffffff1673ffffffffffffffffffffffffffffffffffffffff1681526020019081526020015f205f8573ffffffffffffffffffffffffffffffffffffffff1673ffffffffffffffffffffffffffffffffffffffff1681526020019081526020015f20819055506001905092915050565b5f815f5f8673ffffffffffffffffffffffffffffffffffffffff1673ffffffffffffffffffffffffffffffffffffffff1681526020019081526020015f20541015610327576040517f08c379a000000000000000000000000000000000000000000000000000000000815260040161031e90610a17565b60405180910390fd5b8160015f8673ffffffffffffffffffffffffffffffffffffffff1673ffffffffffffffffffffffffffffffffffffffff1681526020019081526020015f205f3373ffffffffffffffffffffffffffffffffffffffff1673ffffffffffffffffffffffffffffffffffffffff1681526020019081526020015f205410156103e2576040517f08c379a00000000000000000000000000000000000000000000000000000000081526004016103d990610a7f565b60405180910390fd5b815f5f8673ffffffffffffffffffffffffffffffffffffffff1673ffffffffffffffffffffffffffffffffffffffff1681526020019081526020015f205f82825461042d9190610aca565b92505081905550815f5f8573ffffffffffffffffffffffffffffffffffffffff1673ffffffffffffffffffffffffffffffffffffffff1681526020019081526020015f205f82825461047f9190610afd565b925050819055508160015f8673ffffffffffffffffffffffffffffffffffffffff1673ffffffffffffffffffffffffffffffffffffffff1681526020019081526020015f205f3373ffffffffffffffffffffffffffffffffffffffff1673ffffffffffffffffffffffffffffffffffffffff1681526020019081526020015f205f82825461050d9190610aca565b92505081905550600190509392505050565b5f602052805f5260405f205f915090505481565b5f6012905090565b805f5f8473ffffffffffffffffffffffffffffffffffffffff1673ffffffffffffffffffffffffffffffffffffffff1681526020019081526020015f205f8282546105869190610afd565b925050819055505050565b6001602052815f5260405f20602052805f5260405f205f91509150505481565b5f5f5f8373ffffffffffffffffffffffffffffffffffffffff1673ffffffffffffffffffffffffffffffffffffffff1681526020019081526020015f20549050919050565b5f815f5f3373ffffffffffffffffffffffffffffffffffffffff1673ffffffffffffffffffffffffffffffffffffffff1681526020019081526020015f20541015610676576040517f08c379a000000000000000000000000000000000000000000000000000000000815260040161066d90610a17565b60405180910390fd5b815f5f3373ffffffffffffffffffffffffffffffffffffffff1673ffffffffffffffffffffffffffffffffffffffff1681526020019081526020015f205f8282546106c19190610aca565b92505081905550815f5f8573ffffffffffffffffffffffffffffffffffffffff1673ffffffffffffffffffffffffffffffffffffffff1681526020019081526020015f205f8282546107139190610afd565b925050819055506001905092915050565b5f60015f8473ffffffffffffffffffffffffffffffffffffffff1673ffffffffffffffffffffffffffffffffffffffff1681526020019081526020015f205f8373ffffffffffffffffffffffffffffffffffffffff1673ffffffffffffffffffffffffffffffffffffffff1681526020019081526020015f2054905092915050565b5f5ffd5b5f73ffffffffffffffffffffffffffffffffffffffff82169050919050565b5f6107d3826107aa565b9050919050565b6107e3816107c9565b81146107ed575f5ffd5b50565b5f813590506107fe816107da565b92915050565b5f819050919050565b61081681610804565b8114610820575f5ffd5b50565b5f813590506108318161080d565b92915050565b5f5f6040838503121561084d5761084c6107a6565b5b5f61085a858286016107f0565b925050602061086b85828601610823565b9150509250929050565b5f8115159050919050565b61088981610875565b82525050565b5f6020820190506108a25f830184610880565b92915050565b5f5f5f606084860312156108bf576108be6107a6565b5b5f6108cc868287016107f0565b93505060206108dd868287016107f0565b92505060406108ee86828701610823565b9150509250925092565b5f6020828403121561090d5761090c6107a6565b5b5f61091a848285016107f0565b91505092915050565b61092c81610804565b82525050565b5f6020820190506109455f830184610923565b92915050565b5f60ff82169050919050565b6109608161094b565b82525050565b5f6020820190506109795f830184610957565b92915050565b5f5f60408385031215610995576109946107a6565b5b5f6109a2858286016107f0565b92505060206109b3858286016107f0565b9150509250929050565b5f82825260208201905092915050565b7f496e73756666696369656e742062616c616e63650000000000000000000000005f82015250565b5f610a016014836109bd565b9150610a0c826109cd565b602082019050919050565b5f6020820190508181035f830152610a2e816109f5565b9050919050565b7f416c6c6f77616e636520657863656564656400000000000000000000000000005f82015250565b5f610a696012836109bd565b9150610a7482610a35565b602082019050919050565b5f6020820190508181035f830152610a9681610a5d565b9050919050565b7f4e487b71000000000000000000000000000000000000000000000000000000005f52601160045260245ffd5b5f610ad482610804565b9150610adf83610804565b9250828203905081811115610af757610af6610a9d565b5b92915050565b5f610b0782610804565b9150610b1283610804565b9250828201905080821115610b2a57610b29610a9d565b5b9291505056fea2646970667358221220080d508d0df7dca9e33bdc1290c4df2696e3c699d2ed6fb56aa0be2dbc03145c64736f6c634300081c0033","linkReferences":{}},"methodIdentifiers":{"allowance(address,address)":"dd62ed3e","allowances(address,address)":"55b6ed5c","approve(address,uint256)":"095ea7b3","balanceOf(address)":"70a08231","balances(address)":"27e235e3","decimals()":"313ce567","mint(address,uint256)":"40c10f19","transfer(address,uint256)":"a9059cbb","transferFrom(address,address,uint256)":"23b872dd"},"id":39}