{"abi":[{"type":"function","name":"DOMAIN_SEPARATOR","inputs":[],"outputs":[{"name":"","type":"bytes32","internalType":"bytes32"}],"stateMutability":"view"},{"type":"function","name":"allowance","inputs":[{"name":"","type":"address","internalType":"address"},{"name":"","type":"address","internalType":"address"}],"outputs":[{"name":"","type":"uint256","internalType":"uint256"}],"stateMutability":"view"},{"type":"function","name":"approve","inputs":[{"name":"spender","type":"address","internalType":"address"},{"name":"amount","type":"uint256","internalType":"uint256"}],"outputs":[{"name":"","type":"bool","internalType":"bool"}],"stateMutability":"nonpayable"},{"type":"function","name":"balanceOf","inputs":[{"name":"","type":"address","internalType":"address"}],"outputs":[{"name":"","type":"uint256","internalType":"uint256"}],"stateMutability":"view"},{"type":"function","name":"decimals","inputs":[],"outputs":[{"name":"","type":"uint8","internalType":"uint8"}],"stateMutability":"view"},{"type":"function","name":"initialize","inputs":[{"name":"_name","type":"string","internalType":"string"},{"name":"_symbol","type":"string","internalType":"string"},{"name":"_decimals","type":"uint8","internalType":"uint8"}],"outputs":[],"stateMutability":"nonpayable"},{"type":"function","name":"name","inputs":[],"outputs":[{"name":"","type":"string","internalType":"string"}],"stateMutability":"view"},{"type":"function","name":"nonces","inputs":[{"name":"","type":"address","internalType":"address"}],"outputs":[{"name":"","type":"uint256","internalType":"uint256"}],"stateMutability":"view"},{"type":"function","name":"permit","inputs":[{"name":"owner","type":"address","internalType":"address"},{"name":"spender","type":"address","internalType":"address"},{"name":"value","type":"uint256","internalType":"uint256"},{"name":"deadline","type":"uint256","internalType":"uint256"},{"name":"v","type":"uint8","internalType":"uint8"},{"name":"r","type":"bytes32","internalType":"bytes32"},{"name":"s","type":"bytes32","internalType":"bytes32"}],"outputs":[],"stateMutability":"nonpayable"},{"type":"function","name":"symbol","inputs":[],"outputs":[{"name":"","type":"string","internalType":"string"}],"stateMutability":"view"},{"type":"function","name":"totalSupply","inputs":[],"outputs":[{"name":"","type":"uint256","internalType":"uint256"}],"stateMutability":"view"},{"type":"function","name":"transfer","inputs":[{"name":"to","type":"address","internalType":"address"},{"name":"amount","type":"uint256","internalType":"uint256"}],"outputs":[{"name":"","type":"bool","internalType":"bool"}],"stateMutability":"nonpayable"},{"type":"function","name":"transferFrom","inputs":[{"name":"from","type":"address","internalType":"address"},{"name":"to","type":"address","internalType":"address"},{"name":"amount","type":"uint256","internalType":"uint256"}],"outputs":[{"name":"","type":"bool","internalType":"bool"}],"stateMutability":"nonpayable"},{"type":"event","name":"Approval","inputs":[{"name":"owner","type":"address","indexed":true,"internalType":"address"},{"name":"spender","type":"address","indexed":true,"internalType":"address"},{"name":"amount","type":"uint256","indexed":false,"internalType":"uint256"}],"anonymous":false},{"type":"event","name":"Transfer","inputs":[{"name":"from","type":"address","indexed":true,"internalType":"address"},{"name":"to","type":"address","indexed":true,"internalType":"address"},{"name":"amount","type":"uint256","indexed":false,"internalType":"uint256"}],"anonymous":false}],"bytecode":{"object":"0x6080604052348015600e575f5ffd5b50611c818061001c5f395ff3fe608060405234801561000f575f5ffd5b50600436106100cd575f3560e01c80633644e5151161008a57806395d89b411161006457806395d89b4114610225578063a9059cbb14610243578063d505accf14610273578063dd62ed3e1461028f576100cd565b80633644e515146101a757806370a08231146101c55780637ecebe00146101f5576100cd565b806306fdde03146100d1578063095ea7b3146100ef5780631624f6c61461011f57806318160ddd1461013b57806323b872dd14610159578063313ce56714610189575b5f5ffd5b6100d96102bf565b6040516100e69190610ef8565b60405180910390f35b61010960048036038101906101049190610fb6565b61034a565b604051610116919061100e565b60405180910390f35b61013960048036038101906101349190611189565b610437565b005b6101436104fa565b6040516101509190611220565b60405180910390f35b610173600480360381019061016e9190611239565b610500565b604051610180919061100e565b60405180910390f35b61019161078d565b60405161019e9190611298565b60405180910390f35b6101af61079f565b6040516101bc91906112c9565b60405180910390f35b6101df60048036038101906101da91906112e2565b6107c6565b6040516101ec9190611220565b60405180910390f35b61020f600480360381019061020a91906112e2565b6107db565b60405161021c9190611220565b60405180910390f35b61022d6107f0565b60405161023a9190610ef8565b60405180910390f35b61025d60048036038101906102589190610fb6565b61087c565b60405161026a919061100e565b60405180910390f35b61028d60048036038101906102889190611337565b6109fc565b005b6102a960048036038101906102a491906113d4565b610cef565b6040516102b69190611220565b60405180910390f35b5f80546102cb9061143f565b80601f01602080910402602001604051908101604052809291908181526020018280546102f79061143f565b80156103425780601f1061031957610100808354040283529160200191610342565b820191905f5260205f20905b81548152906001019060200180831161032557829003601f168201915b505050505081565b5f8160055f3373ffffffffffffffffffffffffffffffffffffffff1673ffffffffffffffffffffffffffffffffffffffff1681526020019081526020015f205f8573ffffffffffffffffffffffffffffffffffffffff1673ffffffffffffffffffffffffffffffffffffffff1681526020019081526020015f20819055508273ffffffffffffffffffffffffffffffffffffffff163373ffffffffffffffffffffffffffffffffffffffff167f8c5be1e5ebec7d5bd14f71427d1e84f3dd0314c0f7b2291e5b200ac8c7c3b925846040516104259190611220565b60405180910390a36001905092915050565b60095f9054906101000a900460ff1615610486576040517f08c379a000000000000000000000000000000000000000000000000000000000815260040161047d906114b9565b60405180910390fd5b825f90816104949190611677565b5081600190816104a49190611677565b508060025f6101000a81548160ff021916908360ff1602179055506104c7610d0f565b6006819055506104d5610d31565b600781905550600160095f6101000a81548160ff021916908315150217905550505050565b60035481565b5f5f60055f8673ffffffffffffffffffffffffffffffffffffffff1673ffffffffffffffffffffffffffffffffffffffff1681526020019081526020015f205f3373ffffffffffffffffffffffffffffffffffffffff1673ffffffffffffffffffffffffffffffffffffffff1681526020019081526020015f205490505f19811461060c5761058f8184610dc2565b60055f8773ffffffffffffffffffffffffffffffffffffffff1673ffffffffffffffffffffffffffffffffffffffff1681526020019081526020015f205f3373ffffffffffffffffffffffffffffffffffffffff1673ffffffffffffffffffffffffffffffffffffffff1681526020019081526020015f20819055505b61065360045f8773ffffffffffffffffffffffffffffffffffffffff1673ffffffffffffffffffffffffffffffffffffffff1681526020019081526020015f205484610dc2565b60045f8773ffffffffffffffffffffffffffffffffffffffff1673ffffffffffffffffffffffffffffffffffffffff1681526020019081526020015f20819055506106db60045f8673ffffffffffffffffffffffffffffffffffffffff1673ffffffffffffffffffffffffffffffffffffffff1681526020019081526020015f205484610e1a565b60045f8673ffffffffffffffffffffffffffffffffffffffff1673ffffffffffffffffffffffffffffffffffffffff1681526020019081526020015f20819055508373ffffffffffffffffffffffffffffffffffffffff168573ffffffffffffffffffffffffffffffffffffffff167fddf252ad1be2c89b69c2b068fc378daa952ba7f163c4a11628f55a4df523b3ef856040516107799190611220565b60405180910390a360019150509392505050565b60025f9054906101000a900460ff1681565b5f6006546107ab610d0f565b146107bd576107b8610d31565b6107c1565b6007545b905090565b6004602052805f5260405f205f915090505481565b6008602052805f5260405f205f915090505481565b600180546107fd9061143f565b80601f01602080910402602001604051908101604052809291908181526020018280546108299061143f565b80156108745780601f1061084b57610100808354040283529160200191610874565b820191905f5260205f20905b81548152906001019060200180831161085757829003601f168201915b505050505081565b5f6108c460045f3373ffffffffffffffffffffffffffffffffffffffff1673ffffffffffffffffffffffffffffffffffffffff1681526020019081526020015f205483610dc2565b60045f3373ffffffffffffffffffffffffffffffffffffffff1673ffffffffffffffffffffffffffffffffffffffff1681526020019081526020015f208190555061094c60045f8573ffffffffffffffffffffffffffffffffffffffff1673ffffffffffffffffffffffffffffffffffffffff1681526020019081526020015f205483610e1a565b60045f8573ffffffffffffffffffffffffffffffffffffffff1673ffffffffffffffffffffffffffffffffffffffff1681526020019081526020015f20819055508273ffffffffffffffffffffffffffffffffffffffff163373ffffffffffffffffffffffffffffffffffffffff167fddf252ad1be2c89b69c2b068fc378daa952ba7f163c4a11628f55a4df523b3ef846040516109ea9190611220565b60405180910390a36001905092915050565b42841015610a3f576040517f08c379a0000000000000000000000000000000000000000000000000000000008152600401610a3690611790565b60405180910390fd5b5f6001610a4a61079f565b7f6e71edae12b1b97f4d1f60370fef10105fa2faae0126114a169c64845d6126c98a8a8a60085f8f73ffffffffffffffffffffffffffffffffffffffff1673ffffffffffffffffffffffffffffffffffffffff1681526020019081526020015f205f815480929190610abb906117db565b919050558b604051602001610ad596959493929190611831565b60405160208183030381529060405280519060200120604051602001610afc929190611904565b604051602081830303815290604052805190602001208585856040515f8152602001604052604051610b31949392919061193a565b6020604051602081039080840390855afa158015610b51573d5f5f3e3d5ffd5b5050506020604051035190505f73ffffffffffffffffffffffffffffffffffffffff168173ffffffffffffffffffffffffffffffffffffffff1614158015610bc457508773ffffffffffffffffffffffffffffffffffffffff168173ffffffffffffffffffffffffffffffffffffffff16145b610c03576040517f08c379a0000000000000000000000000000000000000000000000000000000008152600401610bfa906119c7565b60405180910390fd5b8560055f8373ffffffffffffffffffffffffffffffffffffffff1673ffffffffffffffffffffffffffffffffffffffff1681526020019081526020015f205f8973ffffffffffffffffffffffffffffffffffffffff1673ffffffffffffffffffffffffffffffffffffffff1681526020019081526020015f20819055508673ffffffffffffffffffffffffffffffffffffffff168873ffffffffffffffffffffffffffffffffffffffff167f8c5be1e5ebec7d5bd14f71427d1e84f3dd0314c0f7b2291e5b200ac8c7c3b92588604051610cdd9190611220565b60405180910390a35050505050505050565b6005602052815f5260405f20602052805f5260405f205f91509150505481565b5f610e7e610e779050610e7e819050610d2a8163ffffffff16565b9250505090565b5f7f8b73c3c69bb8fe3d512ecc4cf759cc79239f7b179b0ffacaa9a75d522b39400f5f604051610d619190611a81565b60405180910390207fc89efdaa54c0f20c7adf612882df0950f5a951637e0307cdcb4c672f298b8bc6610d92610d0f565b30604051602001610da7959493929190611a97565b60405160208183030381529060405280519060200120905090565b5f81831015610e06576040517f08c379a0000000000000000000000000000000000000000000000000000000008152600401610dfd90611b32565b60405180910390fd5b8183610e129190611b50565b905092915050565b5f5f8284610e289190611b83565b905083811015610e6d576040517f08c379a0000000000000000000000000000000000000000000000000000000008152600401610e6490611c00565b60405180910390fd5b8091505092915050565b5f46905090565b610e86611c1e565b565b5f81519050919050565b5f82825260208201905092915050565b8281835e5f83830152505050565b5f601f19601f8301169050919050565b5f610eca82610e88565b610ed48185610e92565b9350610ee4818560208601610ea2565b610eed81610eb0565b840191505092915050565b5f6020820190508181035f830152610f108184610ec0565b905092915050565b5f604051905090565b5f5ffd5b5f5ffd5b5f73ffffffffffffffffffffffffffffffffffffffff82169050919050565b5f610f5282610f29565b9050919050565b610f6281610f48565b8114610f6c575f5ffd5b50565b5f81359050610f7d81610f59565b92915050565b5f819050919050565b610f9581610f83565b8114610f9f575f5ffd5b50565b5f81359050610fb081610f8c565b92915050565b5f5f60408385031215610fcc57610fcb610f21565b5b5f610fd985828601610f6f565b9250506020610fea85828601610fa2565b9150509250929050565b5f8115159050919050565b61100881610ff4565b82525050565b5f6020820190506110215f830184610fff565b92915050565b5f5ffd5b5f5ffd5b7f4e487b71000000000000000000000000000000000000000000000000000000005f52604160045260245ffd5b61106582610eb0565b810181811067ffffffffffffffff821117156110845761108361102f565b5b80604052505050565b5f611096610f18565b90506110a2828261105c565b919050565b5f67ffffffffffffffff8211156110c1576110c061102f565b5b6110ca82610eb0565b9050602081019050919050565b828183375f83830152505050565b5f6110f76110f2846110a7565b61108d565b9050828152602081018484840111156111135761111261102b565b5b61111e8482856110d7565b509392505050565b5f82601f83011261113a57611139611027565b5b813561114a8482602086016110e5565b91505092915050565b5f60ff82169050919050565b61116881611153565b8114611172575f5ffd5b50565b5f813590506111838161115f565b92915050565b5f5f5f606084860312156111a05761119f610f21565b5b5f84013567ffffffffffffffff8111156111bd576111bc610f25565b5b6111c986828701611126565b935050602084013567ffffffffffffffff8111156111ea576111e9610f25565b5b6111f686828701611126565b925050604061120786828701611175565b9150509250925092565b61121a81610f83565b82525050565b5f6020820190506112335f830184611211565b92915050565b5f5f5f606084860312156112505761124f610f21565b5b5f61125d86828701610f6f565b935050602061126e86828701610f6f565b925050604061127f86828701610fa2565b9150509250925092565b61129281611153565b82525050565b5f6020820190506112ab5f830184611289565b92915050565b5f819050919050565b6112c3816112b1565b82525050565b5f6020820190506112dc5f8301846112ba565b92915050565b5f602082840312156112f7576112f6610f21565b5b5f61130484828501610f6f565b91505092915050565b611316816112b1565b8114611320575f5ffd5b50565b5f813590506113318161130d565b92915050565b5f5f5f5f5f5f5f60e0888a03121561135257611351610f21565b5b5f61135f8a828b01610f6f565b97505060206113708a828b01610f6f565b96505060406113818a828b01610fa2565b95505060606113928a828b01610fa2565b94505060806113a38a828b01611175565b93505060a06113b48a828b01611323565b92505060c06113c58a828b01611323565b91505092959891949750929550565b5f5f604083850312156113ea576113e9610f21565b5b5f6113f785828601610f6f565b925050602061140885828601610f6f565b9150509250929050565b7f4e487b71000000000000000000000000000000000000000000000000000000005f52602260045260245ffd5b5f600282049050600182168061145657607f821691505b60208210810361146957611468611412565b5b50919050565b7f414c52454144595f494e495449414c495a4544000000000000000000000000005f82015250565b5f6114a3601383610e92565b91506114ae8261146f565b602082019050919050565b5f6020820190508181035f8301526114d081611497565b9050919050565b5f819050815f5260205f209050919050565b5f6020601f8301049050919050565b5f82821b905092915050565b5f600883026115337fffffffffffffffffffffffffffffffffffffffffffffffffffffffffffffffff826114f8565b61153d86836114f8565b95508019841693508086168417925050509392505050565b5f819050919050565b5f61157861157361156e84610f83565b611555565b610f83565b9050919050565b5f819050919050565b6115918361155e565b6115a561159d8261157f565b848454611504565b825550505050565b5f5f905090565b6115bc6115ad565b6115c7818484611588565b505050565b5b818110156115ea576115df5f826115b4565b6001810190506115cd565b5050565b601f82111561162f57611600816114d7565b611609846114e9565b81016020851015611618578190505b61162c611624856114e9565b8301826115cc565b50505b505050565b5f82821c905092915050565b5f61164f5f1984600802611634565b1980831691505092915050565b5f6116678383611640565b9150826002028217905092915050565b61168082610e88565b67ffffffffffffffff8111156116995761169861102f565b5b6116a3825461143f565b6116ae8282856115ee565b5f60209050601f8311600181146116df575f84156116cd578287015190505b6116d7858261165c565b86555061173e565b601f1984166116ed866114d7565b5f5b82811015611714578489015182556001820191506020850194506020810190506116ef565b86831015611731578489015161172d601f891682611640565b8355505b6001600288020188555050505b505050505050565b7f5045524d49545f444541444c494e455f455850495245440000000000000000005f82015250565b5f61177a601783610e92565b915061178582611746565b602082019050919050565b5f6020820190508181035f8301526117a78161176e565b9050919050565b7f4e487b71000000000000000000000000000000000000000000000000000000005f52601160045260245ffd5b5f6117e582610f83565b91507fffffffffffffffffffffffffffffffffffffffffffffffffffffffffffffffff8203611817576118166117ae565b5b600182019050919050565b61182b81610f48565b82525050565b5f60c0820190506118445f8301896112ba565b6118516020830188611822565b61185e6040830187611822565b61186b6060830186611211565b6118786080830185611211565b61188560a0830184611211565b979650505050505050565b5f81905092915050565b7f19010000000000000000000000000000000000000000000000000000000000005f82015250565b5f6118ce600283611890565b91506118d98261189a565b600282019050919050565b5f819050919050565b6118fe6118f9826112b1565b6118e4565b82525050565b5f61190e826118c2565b915061191a82856118ed565b60208201915061192a82846118ed565b6020820191508190509392505050565b5f60808201905061194d5f8301876112ba565b61195a6020830186611289565b61196760408301856112ba565b61197460608301846112ba565b95945050505050565b7f494e56414c49445f5349474e45520000000000000000000000000000000000005f82015250565b5f6119b1600e83610e92565b91506119bc8261197d565b602082019050919050565b5f6020820190508181035f8301526119de816119a5565b9050919050565b5f81905092915050565b5f819050815f5260205f209050919050565b5f8154611a0d8161143f565b611a1781866119e5565b9450600182165f8114611a315760018114611a4657611a78565b60ff1983168652811515820286019350611a78565b611a4f856119ef565b5f5b83811015611a7057815481890152600182019150602081019050611a51565b838801955050505b50505092915050565b5f611a8c8284611a01565b915081905092915050565b5f60a082019050611aaa5f8301886112ba565b611ab760208301876112ba565b611ac460408301866112ba565b611ad16060830185611211565b611ade6080830184611822565b9695505050505050565b7f45524332303a207375627472616374696f6e20756e646572666c6f77000000005f82015250565b5f611b1c601c83610e92565b9150611b2782611ae8565b602082019050919050565b5f6020820190508181035f830152611b4981611b10565b9050919050565b5f611b5a82610f83565b9150611b6583610f83565b9250828203905081811115611b7d57611b7c6117ae565b5b92915050565b5f611b8d82610f83565b9150611b9883610f83565b9250828201905080821115611bb057611baf6117ae565b5b92915050565b7f45524332303a206164646974696f6e206f766572666c6f7700000000000000005f82015250565b5f611bea601883610e92565b9150611bf582611bb6565b602082019050919050565b5f6020820190508181035f830152611c1781611bde565b9050919050565b7f4e487b71000000000000000000000000000000000000000000000000000000005f52605160045260245ffdfea264697066735822122088aea4dffc5e14f621c3e7d40897eadc8df0d3e4b59b7d5d9e14352e5030837864736f6c634300081c0033","linkReferences":{}},"methodIdentifiers":{"DOMAIN_SEPARATOR()":"3644e515","allowance(address,address)":"dd62ed3e","approve(address,uint256)":"095ea7b3","balanceOf(address)":"70a08231","decimals()":"313ce567","initialize(string,string,uint8)":"1624f6c6","name()":"06fdde03","nonces(address)":"7ecebe00","permit(address,address,uint256,uint256,uint8,bytes32,bytes32)":"d505accf","symbol()":"95d89b41","totalSupply()":"18160ddd","transfer(address,uint256)":"a9059cbb","transferFrom(address,address,uint256)":"23b872dd"},"id":23}