{"abi":[{"type":"function","name":"getScore","inputs":[{"name":"user","type":"address","internalType":"address"}],"outputs":[{"name":"","type":"uint256","internalType":"uint256"}],"stateMutability":"view"},{"type":"function","name":"scores","inputs":[{"name":"","type":"address","internalType":"address"}],"outputs":[{"name":"","type":"uint256","internalType":"uint256"}],"stateMutability":"view"},{"type":"function","name":"setScore","inputs":[{"name":"user","type":"address","internalType":"address"},{"name":"score","type":"uint256","internalType":"uint256"}],"outputs":[],"stateMutability":"nonpayable"}],"bytecode":{"object":"0x6080604052348015600e575f5ffd5b506101608061001c5f395ff3fe608060405234801561000f575f5ffd5b506004361061003f575f3560e01c806376dd110f14610043578063d47875d014610074578063ee0fcc751461009c575b5f5ffd5b6100626100513660046100e2565b5f6020819052908152604090205481565b60405190815260200160405180910390f35b6100626100823660046100e2565b6001600160a01b03165f9081526020819052604090205490565b6100c56100aa366004610102565b6001600160a01b039091165f90815260208190526040902055565b005b80356001600160a01b03811681146100dd575f5ffd5b919050565b5f602082840312156100f2575f5ffd5b6100fb826100c7565b9392505050565b5f5f60408385031215610113575f5ffd5b61011c836100c7565b94602093909301359350505056fea26469706673582212204cc3170a9c1f0120a18f72a5a62a1ad65c078caf026bce1d1e96dee5b38a446164736f6c634300081c0033","linkReferences":{}},"methodIdentifiers":{"getScore(address)":"d47875d0","scores(address)":"76dd110f","setScore(address,uint256)":"ee0fcc75"},"id":38}