{"abi":[{"type":"function","name":"getScore","inputs":[{"name":"user","type":"address","internalType":"address"}],"outputs":[{"name":"","type":"uint256","internalType":"uint256"}],"stateMutability":"view"},{"type":"function","name":"scores","inputs":[{"name":"","type":"address","internalType":"address"}],"outputs":[{"name":"","type":"uint256","internalType":"uint256"}],"stateMutability":"view"},{"type":"function","name":"setScore","inputs":[{"name":"user","type":"address","internalType":"address"},{"name":"score","type":"uint256","internalType":"uint256"}],"outputs":[],"stateMutability":"nonpayable"}],"bytecode":{"object":"0x6080604052348015600e575f5ffd5b506102b58061001c5f395ff3fe608060405234801561000f575f5ffd5b506004361061003f575f3560e01c806376dd110f14610043578063d47875d014610073578063ee0fcc75146100a3575b5f5ffd5b61005d600480360381019061005891906101bb565b6100bf565b60405161006a91906101fe565b60405180910390f35b61008d600480360381019061008891906101bb565b6100d3565b60405161009a91906101fe565b60405180910390f35b6100bd60048036038101906100b89190610241565b610118565b005b5f602052805f5260405f205f915090505481565b5f5f5f8373ffffffffffffffffffffffffffffffffffffffff1673ffffffffffffffffffffffffffffffffffffffff1681526020019081526020015f20549050919050565b805f5f8473ffffffffffffffffffffffffffffffffffffffff1673ffffffffffffffffffffffffffffffffffffffff1681526020019081526020015f20819055505050565b5f5ffd5b5f73ffffffffffffffffffffffffffffffffffffffff82169050919050565b5f61018a82610161565b9050919050565b61019a81610180565b81146101a4575f5ffd5b50565b5f813590506101b581610191565b92915050565b5f602082840312156101d0576101cf61015d565b5b5f6101dd848285016101a7565b91505092915050565b5f819050919050565b6101f8816101e6565b82525050565b5f6020820190506102115f8301846101ef565b92915050565b610220816101e6565b811461022a575f5ffd5b50565b5f8135905061023b81610217565b92915050565b5f5f604083850312156102575761025661015d565b5b5f610264858286016101a7565b92505060206102758582860161022d565b915050925092905056fea2646970667358221220cf4365dc0f9da6fb6b57cb70b8326974bcb4bf01aeb4f3dbd320ecae72bb960d64736f6c634300081c0033","linkReferences":{}},"methodIdentifiers":{"getScore(address)":"d47875d0","scores(address)":"76dd110f","setScore(address,uint256)":"ee0fcc75"},"id":38}