{"abi":[{"type":"constructor","inputs":[{"name":"_peoToken","type":"address","internalType":"address"},{"name":"_backendService","type":"address","internalType":"address"}],"stateMutability":"nonpayable"},{"type":"function","name":"backendService","inputs":[],"outputs":[{"name":"","type":"address","internalType":"address"}],"stateMutability":"view"},{"type":"function","name":"confirmConversion","inputs":[{"name":"user","type":"address","internalType":"address"},{"name":"amount","type":"uint256","internalType":"uint256"},{"name":"mobileNumber","type":"string","internalType":"string"}],"outputs":[],"stateMutability":"nonpayable"},{"type":"function","name":"peoToken","inputs":[],"outputs":[{"name":"","type":"address","internalType":"contract IPeoCoin"}],"stateMutability":"view"},{"type":"function","name":"requestConversion","inputs":[{"name":"amount","type":"uint256","internalType":"uint256"},{"name":"mobileNumber","type":"string","internalType":"string"},{"name":"currency","type":"string","internalType":"string"}],"outputs":[],"stateMutability":"nonpayable"},{"type":"event","name":"ConversionConfirmed","inputs":[{"name":"user","type":"address","indexed":true,"internalType":"address"},{"name":"amount","type":"uint256","indexed":false,"internalType":"uint256"},{"name":"mobileNumber","type":"string","indexed":false,"internalType":"string"}],"anonymous":false},{"type":"event","name":"ConversionRequested","inputs":[{"name":"user","type":"address","indexed":true,"internalType":"address"},{"name":"amount","type":"uint256","indexed":false,"internalType":"uint256"},{"name":"mobileNumber","type":"string","indexed":false,"internalType":"string"},{"name":"currency","type":"string","indexed":false,"internalType":"string"}],"anonymous":false}],"bytecode":{"object":"0x608060405234801561000f575f5ffd5b50604051610a49380380610a4983398181016040528101906100319190610115565b815f5f6101000a81548173ffffffffffffffffffffffffffffffffffffffff021916908373ffffffffffffffffffffffffffffffffffffffff1602179055508060015f6101000a81548173ffffffffffffffffffffffffffffffffffffffff021916908373ffffffffffffffffffffffffffffffffffffffff1602179055505050610153565b5f5ffd5b5f73ffffffffffffffffffffffffffffffffffffffff82169050919050565b5f6100e4826100bb565b9050919050565b6100f4816100da565b81146100fe575f5ffd5b50565b5f8151905061010f816100eb565b92915050565b5f5f6040838503121561012b5761012a6100b7565b5b5f61013885828601610101565b925050602061014985828601610101565b9150509250929050565b6108e9806101605f395ff3fe608060405234801561000f575f5ffd5b506004361061004a575f3560e01c8063301d9bef1461004e578063519bbaea1461006c578063dc72179014610088578063eefbcca4146100a6575b5f5ffd5b6100566100c2565b60405161006391906103ec565b60405180910390f35b610086600480360381019061008191906104dc565b6100e6565b005b6100906101cd565b60405161009d919061055c565b60405180910390f35b6100c060048036038101906100bb9190610575565b6101f2565b005b5f5f9054906101000a900473ffffffffffffffffffffffffffffffffffffffff1681565b60015f9054906101000a900473ffffffffffffffffffffffffffffffffffffffff1673ffffffffffffffffffffffffffffffffffffffff163373ffffffffffffffffffffffffffffffffffffffff1614610175576040517f08c379a000000000000000000000000000000000000000000000000000000000815260040161016c90610660565b60405180910390fd5b8373ffffffffffffffffffffffffffffffffffffffff167f26c301b877e460477eb6944ffffd17e78ebc8b16e5ec277fe39380a62f51142a8484846040516101bf939291906106d7565b60405180910390a250505050565b60015f9054906101000a900473ffffffffffffffffffffffffffffffffffffffff1681565b5f8511610234576040517f08c379a000000000000000000000000000000000000000000000000000000000815260040161022b90610751565b60405180910390fd5b5f5f5f9054906101000a900473ffffffffffffffffffffffffffffffffffffffff1673ffffffffffffffffffffffffffffffffffffffff166323b872dd3330896040518463ffffffff1660e01b81526004016102929392919061076f565b6020604051808303815f875af11580156102ae573d5f5f3e3d5ffd5b505050506040513d601f19601f820116820180604052508101906102d291906107d9565b905080610314576040517f08c379a000000000000000000000000000000000000000000000000000000000815260040161030b9061084e565b60405180910390fd5b3373ffffffffffffffffffffffffffffffffffffffff167f131c3f6056281def7349ddf701fc1fd74d2e91d57ad81ff6c4654ede87f9ebac878787878760405161036295949392919061086c565b60405180910390a2505050505050565b5f73ffffffffffffffffffffffffffffffffffffffff82169050919050565b5f819050919050565b5f6103b46103af6103aa84610372565b610391565b610372565b9050919050565b5f6103c58261039a565b9050919050565b5f6103d6826103bb565b9050919050565b6103e6816103cc565b82525050565b5f6020820190506103ff5f8301846103dd565b92915050565b5f5ffd5b5f5ffd5b5f61041782610372565b9050919050565b6104278161040d565b8114610431575f5ffd5b50565b5f813590506104428161041e565b92915050565b5f819050919050565b61045a81610448565b8114610464575f5ffd5b50565b5f8135905061047581610451565b92915050565b5f5ffd5b5f5ffd5b5f5ffd5b5f5f83601f84011261049c5761049b61047b565b5b8235905067ffffffffffffffff8111156104b9576104b861047f565b5b6020830191508360018202830111156104d5576104d4610483565b5b9250929050565b5f5f5f5f606085870312156104f4576104f3610405565b5b5f61050187828801610434565b945050602061051287828801610467565b935050604085013567ffffffffffffffff81111561053357610532610409565b5b61053f87828801610487565b925092505092959194509250565b6105568161040d565b82525050565b5f60208201905061056f5f83018461054d565b92915050565b5f5f5f5f5f6060868803121561058e5761058d610405565b5b5f61059b88828901610467565b955050602086013567ffffffffffffffff8111156105bc576105bb610409565b5b6105c888828901610487565b9450945050604086013567ffffffffffffffff8111156105eb576105ea610409565b5b6105f788828901610487565b92509250509295509295909350565b5f82825260208201905092915050565b7f556e617574686f72697a65642063616c6c6572000000000000000000000000005f82015250565b5f61064a601383610606565b915061065582610616565b602082019050919050565b5f6020820190508181035f8301526106778161063e565b9050919050565b61068781610448565b82525050565b828183375f83830152505050565b5f601f19601f8301169050919050565b5f6106b68385610606565b93506106c383858461068d565b6106cc8361069b565b840190509392505050565b5f6040820190506106ea5f83018661067e565b81810360208301526106fd8184866106ab565b9050949350505050565b7f416d6f756e74206d7573742062652067726561746572207468616e207a65726f5f82015250565b5f61073b602083610606565b915061074682610707565b602082019050919050565b5f6020820190508181035f8301526107688161072f565b9050919050565b5f6060820190506107825f83018661054d565b61078f602083018561054d565b61079c604083018461067e565b949350505050565b5f8115159050919050565b6107b8816107a4565b81146107c2575f5ffd5b50565b5f815190506107d3816107af565b92915050565b5f602082840312156107ee576107ed610405565b5b5f6107fb848285016107c5565b91505092915050565b7f5472616e73666572206661696c656400000000000000000000000000000000005f82015250565b5f610838600f83610606565b915061084382610804565b602082019050919050565b5f6020820190508181035f8301526108658161082c565b9050919050565b5f60608201905061087f5f83018861067e565b81810360208301526108928186886106ab565b905081810360408301526108a78184866106ab565b9050969550505050505056fea2646970667358221220ceb38fdc093d7566e9195917cc08c9fd7d85f331c183098446b03f4c487bcd2164736f6c634300081c0033","linkReferences":{}},"methodIdentifiers":{"backendService()":"dc721790","confirmConversion(address,uint256,string)":"519bbaea","peoToken()":"301d9bef","requestConversion(uint256,string,string)":"eefbcca4"},"id":26}