{"abi":[{"type":"constructor","inputs":[{"name":"_peoToken","type":"address","internalType":"address"},{"name":"_backendService","type":"address","internalType":"address"}],"stateMutability":"nonpayable"},{"type":"function","name":"backendService","inputs":[],"outputs":[{"name":"","type":"address","internalType":"address"}],"stateMutability":"view"},{"type":"function","name":"confirmConversion","inputs":[{"name":"user","type":"address","internalType":"address"},{"name":"amount","type":"uint256","internalType":"uint256"},{"name":"mobileNumber","type":"string","internalType":"string"}],"outputs":[],"stateMutability":"nonpayable"},{"type":"function","name":"peoToken","inputs":[],"outputs":[{"name":"","type":"address","internalType":"contract IPeoCoin"}],"stateMutability":"view"},{"type":"function","name":"requestConversion","inputs":[{"name":"amount","type":"uint256","internalType":"uint256"},{"name":"mobileNumber","type":"string","internalType":"string"},{"name":"currency","type":"string","internalType":"string"}],"outputs":[],"stateMutability":"nonpayable"},{"type":"event","name":"ConversionConfirmed","inputs":[{"name":"user","type":"address","indexed":true,"internalType":"address"},{"name":"amount","type":"uint256","indexed":false,"internalType":"uint256"},{"name":"mobileNumber","type":"string","indexed":false,"internalType":"string"}],"anonymous":false},{"type":"event","name":"ConversionRequested","inputs":[{"name":"user","type":"address","indexed":true,"internalType":"address"},{"name":"amount","type":"uint256","indexed":false,"internalType":"uint256"},{"name":"mobileNumber","type":"string","indexed":false,"internalType":"string"},{"name":"currency","type":"string","indexed":false,"internalType":"string"}],"anonymous":false}],"bytecode":{"object":"0x6080604052348015600e575f5ffd5b5060405161055c38038061055c833981016040819052602b916074565b5f80546001600160a01b039384166001600160a01b0319918216179091556001805492909316911617905560a0565b80516001600160a01b0381168114606f575f5ffd5b919050565b5f5f604083850312156084575f5ffd5b608b83605a565b9150609760208401605a565b90509250929050565b6104af806100ad5f395ff3fe608060405234801561000f575f5ffd5b506004361061004a575f3560e01c8063301d9bef1461004e578063519bbaea1461007c578063dc72179014610091578063eefbcca4146100a4575b5f5ffd5b5f54610060906001600160a01b031681565b6040516001600160a01b03909116815260200160405180910390f35b61008f61008a3660046102f5565b6100b7565b005b600154610060906001600160a01b031681565b61008f6100b2366004610358565b610157565b6001546001600160a01b0316331461010c5760405162461bcd60e51b81526020600482015260136024820152722ab730baba3437b934bd32b21031b0b63632b960691b60448201526064015b60405180910390fd5b836001600160a01b03167f26c301b877e460477eb6944ffffd17e78ebc8b16e5ec277fe39380a62f51142a848484604051610149939291906103f9565b60405180910390a250505050565b5f85116101a65760405162461bcd60e51b815260206004820181905260248201527f416d6f756e74206d7573742062652067726561746572207468616e207a65726f6044820152606401610103565b5f80546040516323b872dd60e01b8152336004820152306024820152604481018890526001600160a01b03909116906323b872dd906064016020604051808303815f875af11580156101fa573d5f5f3e3d5ffd5b505050506040513d601f19601f8201168201806040525081019061021e919061041b565b90508061025f5760405162461bcd60e51b815260206004820152600f60248201526e151c985b9cd9995c8819985a5b1959608a1b6044820152606401610103565b336001600160a01b03167f131c3f6056281def7349ddf701fc1fd74d2e91d57ad81ff6c4654ede87f9ebac87878787876040516102a0959493929190610441565b60405180910390a2505050505050565b5f5f83601f8401126102c0575f5ffd5b50813567ffffffffffffffff8111156102d7575f5ffd5b6020830191508360208285010111156102ee575f5ffd5b9250929050565b5f5f5f5f60608587031215610308575f5ffd5b84356001600160a01b038116811461031e575f5ffd5b935060208501359250604085013567ffffffffffffffff811115610340575f5ffd5b61034c878288016102b0565b95989497509550505050565b5f5f5f5f5f6060868803121561036c575f5ffd5b85359450602086013567ffffffffffffffff811115610389575f5ffd5b610395888289016102b0565b909550935050604086013567ffffffffffffffff8111156103b4575f5ffd5b6103c0888289016102b0565b969995985093965092949392505050565b81835281816020850137505f828201602090810191909152601f909101601f19169091010190565b838152604060208201525f6104126040830184866103d1565b95945050505050565b5f6020828403121561042b575f5ffd5b8151801515811461043a575f5ffd5b9392505050565b858152606060208201525f61045a6060830186886103d1565b828103604084015261046d8185876103d1565b9897505050505050505056fea2646970667358221220b6860a78c820744f530e1f6d56f28ddbe16f2d8405f7d68fb308013aa2a7aac764736f6c634300081c0033","linkReferences":{}},"methodIdentifiers":{"backendService()":"dc721790","confirmConversion(address,uint256,string)":"519bbaea","peoToken()":"301d9bef","requestConversion(uint256,string,string)":"eefbcca4"},"id":26}