{"abi":[{"type":"constructor","inputs":[{"name":"_peoToken","type":"address","internalType":"address"}],"stateMutability":"nonpayable"},{"type":"function","name":"baseAPY","inputs":[],"outputs":[{"name":"","type":"uint256","internalType":"uint256"}],"stateMutability":"view"},{"type":"function","name":"bronzeMultiplier","inputs":[],"outputs":[{"name":"","type":"uint256","internalType":"uint256"}],"stateMutability":"view"},{"type":"function","name":"calculateReward","inputs":[{"name":"user","type":"address","internalType":"address"}],"outputs":[{"name":"","type":"uint256","internalType":"uint256"}],"stateMutability":"view"},{"type":"function","name":"lockPeriod","inputs":[],"outputs":[{"name":"","type":"uint256","internalType":"uint256"}],"stateMutability":"view"},{"type":"function","name":"peoToken","inputs":[],"outputs":[{"name":"","type":"address","internalType":"contract IPeoCoin"}],"stateMutability":"view"},{"type":"function","name":"stake","inputs":[{"name":"amount","type":"uint256","internalType":"uint256"}],"outputs":[],"stateMutability":"nonpayable"},{"type":"function","name":"stakes","inputs":[{"name":"","type":"address","internalType":"address"}],"outputs":[{"name":"amount","type":"uint256","internalType":"uint256"},{"name":"startTimestamp","type":"uint256","internalType":"uint256"},{"name":"exists","type":"bool","internalType":"bool"}],"stateMutability":"view"},{"type":"function","name":"unstake","inputs":[],"outputs":[],"stateMutability":"nonpayable"}],"bytecode":{"object":"0x6080604052600a60025562278d006003556064600455348015610020575f5ffd5b50604051610eb8380380610eb8833981810160405281019061004291906100e5565b805f5f6101000a81548173ffffffffffffffffffffffffffffffffffffffff021916908373ffffffffffffffffffffffffffffffffffffffff16021790555050610110565b5f5ffd5b5f73ffffffffffffffffffffffffffffffffffffffff82169050919050565b5f6100b48261008b565b9050919050565b6100c4816100aa565b81146100ce575f5ffd5b50565b5f815190506100df816100bb565b92915050565b5f602082840312156100fa576100f9610087565b5b5f610107848285016100d1565b91505092915050565b610d9b8061011d5f395ff3fe608060405234801561000f575f5ffd5b5060043610610086575f3560e01c80633fd8b02f116100595780633fd8b02f14610102578063a694fc3a14610120578063d82e39621461013c578063deeafb651461016c57610086565b806316934fc41461008a578063214405a9146100bc5780632def6620146100da578063301d9bef146100e4575b5f5ffd5b6100a4600480360381019061009f91906107e8565b61018a565b6040516100b393929190610845565b60405180910390f35b6100c46101bc565b6040516100d1919061087a565b60405180910390f35b6100e26101c2565b005b6100ec61042f565b6040516100f991906108ee565b60405180910390f35b61010a610453565b604051610117919061087a565b60405180910390f35b61013a60048036038101906101359190610931565b610459565b005b610156600480360381019061015191906107e8565b61069b565b604051610163919061087a565b60405180910390f35b610174610784565b604051610181919061087a565b60405180910390f35b6001602052805f5260405f205f91509050805f015490806001015490806002015f9054906101000a900460ff16905083565b60025481565b5f60015f3373ffffffffffffffffffffffffffffffffffffffff1673ffffffffffffffffffffffffffffffffffffffff1681526020019081526020015f206040518060600160405290815f820154815260200160018201548152602001600282015f9054906101000a900460ff1615151515815250509050806040015161027e576040517f08c379a0000000000000000000000000000000000000000000000000000000008152600401610275906109b6565b60405180910390fd5b60035481602001516102909190610a01565b4210156102d2576040517f08c379a00000000000000000000000000000000000000000000000000000000081526004016102c990610a7e565b60405180910390fd5b5f6102dc3361069b565b90505f5f5f9054906101000a900473ffffffffffffffffffffffffffffffffffffffff1673ffffffffffffffffffffffffffffffffffffffff1663a9059cbb3384865f015161032b9190610a01565b6040518363ffffffff1660e01b8152600401610348929190610aab565b6020604051808303815f875af1158015610364573d5f5f3e3d5ffd5b505050506040513d601f19601f820116820180604052508101906103889190610afc565b9050806103ca576040517f08c379a00000000000000000000000000000000000000000000000000000000081526004016103c190610b71565b60405180910390fd5b60015f3373ffffffffffffffffffffffffffffffffffffffff1673ffffffffffffffffffffffffffffffffffffffff1681526020019081526020015f205f5f82015f9055600182015f9055600282015f6101000a81549060ff02191690555050505050565b5f5f9054906101000a900473ffffffffffffffffffffffffffffffffffffffff1681565b60035481565b5f811161049b576040517f08c379a000000000000000000000000000000000000000000000000000000000815260040161049290610bd9565b60405180910390fd5b60015f3373ffffffffffffffffffffffffffffffffffffffff1673ffffffffffffffffffffffffffffffffffffffff1681526020019081526020015f206002015f9054906101000a900460ff1615610528576040517f08c379a000000000000000000000000000000000000000000000000000000000815260040161051f90610c41565b60405180910390fd5b5f5f5f9054906101000a900473ffffffffffffffffffffffffffffffffffffffff1673ffffffffffffffffffffffffffffffffffffffff166323b872dd3330856040518463ffffffff1660e01b815260040161058693929190610c5f565b6020604051808303815f875af11580156105a2573d5f5f3e3d5ffd5b505050506040513d601f19601f820116820180604052508101906105c69190610afc565b905080610608576040517f08c379a00000000000000000000000000000000000000000000000000000000081526004016105ff90610b71565b60405180910390fd5b60405180606001604052808381526020014281526020016001151581525060015f3373ffffffffffffffffffffffffffffffffffffffff1673ffffffffffffffffffffffffffffffffffffffff1681526020019081526020015f205f820151815f0155602082015181600101556040820151816002015f6101000a81548160ff0219169083151502179055509050505050565b5f5f60015f8473ffffffffffffffffffffffffffffffffffffffff1673ffffffffffffffffffffffffffffffffffffffff1681526020019081526020015f206040518060600160405290815f820154815260200160018201548152602001600282015f9054906101000a900460ff16151515158152505090508060400151610726575f91505061077f565b5f8160200151426107379190610c94565b90505f62015180826107499190610cf4565b90505f618e9482600254865f01516107619190610d24565b61076b9190610d24565b6107759190610cf4565b9050809450505050505b919050565b60045481565b5f5ffd5b5f73ffffffffffffffffffffffffffffffffffffffff82169050919050565b5f6107b78261078e565b9050919050565b6107c7816107ad565b81146107d1575f5ffd5b50565b5f813590506107e2816107be565b92915050565b5f602082840312156107fd576107fc61078a565b5b5f61080a848285016107d4565b91505092915050565b5f819050919050565b61082581610813565b82525050565b5f8115159050919050565b61083f8161082b565b82525050565b5f6060820190506108585f83018661081c565b610865602083018561081c565b6108726040830184610836565b949350505050565b5f60208201905061088d5f83018461081c565b92915050565b5f819050919050565b5f6108b66108b16108ac8461078e565b610893565b61078e565b9050919050565b5f6108c78261089c565b9050919050565b5f6108d8826108bd565b9050919050565b6108e8816108ce565b82525050565b5f6020820190506109015f8301846108df565b92915050565b61091081610813565b811461091a575f5ffd5b50565b5f8135905061092b81610907565b92915050565b5f602082840312156109465761094561078a565b5b5f6109538482850161091d565b91505092915050565b5f82825260208201905092915050565b7f4e6f207374616b6520666f756e640000000000000000000000000000000000005f82015250565b5f6109a0600e8361095c565b91506109ab8261096c565b602082019050919050565b5f6020820190508181035f8301526109cd81610994565b9050919050565b7f4e487b71000000000000000000000000000000000000000000000000000000005f52601160045260245ffd5b5f610a0b82610813565b9150610a1683610813565b9250828201905080821115610a2e57610a2d6109d4565b5b92915050565b7f4c6f636b20706572696f64206e6f7420656e64656400000000000000000000005f82015250565b5f610a6860158361095c565b9150610a7382610a34565b602082019050919050565b5f6020820190508181035f830152610a9581610a5c565b9050919050565b610aa5816107ad565b82525050565b5f604082019050610abe5f830185610a9c565b610acb602083018461081c565b9392505050565b610adb8161082b565b8114610ae5575f5ffd5b50565b5f81519050610af681610ad2565b92915050565b5f60208284031215610b1157610b1061078a565b5b5f610b1e84828501610ae8565b91505092915050565b7f5472616e73666572206661696c656400000000000000000000000000000000005f82015250565b5f610b5b600f8361095c565b9150610b6682610b27565b602082019050919050565b5f6020820190508181035f830152610b8881610b4f565b9050919050565b7f43616e6e6f74207374616b65207a65726f20746f6b656e7300000000000000005f82015250565b5f610bc360188361095c565b9150610bce82610b8f565b602082019050919050565b5f6020820190508181035f830152610bf081610bb7565b9050919050565b7f416c726561647920686176652061207374616b650000000000000000000000005f82015250565b5f610c2b60148361095c565b9150610c3682610bf7565b602082019050919050565b5f6020820190508181035f830152610c5881610c1f565b9050919050565b5f606082019050610c725f830186610a9c565b610c7f6020830185610a9c565b610c8c604083018461081c565b949350505050565b5f610c9e82610813565b9150610ca983610813565b9250828203905081811115610cc157610cc06109d4565b5b92915050565b7f4e487b71000000000000000000000000000000000000000000000000000000005f52601260045260245ffd5b5f610cfe82610813565b9150610d0983610813565b925082610d1957610d18610cc7565b5b828204905092915050565b5f610d2e82610813565b9150610d3983610813565b9250828202610d4781610813565b91508282048414831517610d5e57610d5d6109d4565b5b509291505056fea26469706673582212209f79bebc6e5edece92947ff752f66ff44a2f7c740e444b0b2204d655b6612a4864736f6c634300081c0033","linkReferences":{}},"methodIdentifiers":{"baseAPY()":"214405a9","bronzeMultiplier()":"deeafb65","calculateReward(address)":"d82e3962","lockPeriod()":"3fd8b02f","peoToken()":"301d9bef","stake(uint256)":"a694fc3a","stakes(address)":"16934fc4","unstake()":"2def6620"},"id":30}