{"abi":[{"type":"constructor","inputs":[{"name":"_peoToken","type":"address","internalType":"address"}],"stateMutability":"nonpayable"},{"type":"function","name":"baseAPY","inputs":[],"outputs":[{"name":"","type":"uint256","internalType":"uint256"}],"stateMutability":"view"},{"type":"function","name":"bronzeMultiplier","inputs":[],"outputs":[{"name":"","type":"uint256","internalType":"uint256"}],"stateMutability":"view"},{"type":"function","name":"calculateReward","inputs":[{"name":"user","type":"address","internalType":"address"}],"outputs":[{"name":"","type":"uint256","internalType":"uint256"}],"stateMutability":"view"},{"type":"function","name":"lockPeriod","inputs":[],"outputs":[{"name":"","type":"uint256","internalType":"uint256"}],"stateMutability":"view"},{"type":"function","name":"peoToken","inputs":[],"outputs":[{"name":"","type":"address","internalType":"contract IPeoCoin"}],"stateMutability":"view"},{"type":"function","name":"stake","inputs":[{"name":"amount","type":"uint256","internalType":"uint256"}],"outputs":[],"stateMutability":"nonpayable"},{"type":"function","name":"stakes","inputs":[{"name":"","type":"address","internalType":"address"}],"outputs":[{"name":"amount","type":"uint256","internalType":"uint256"},{"name":"startTimestamp","type":"uint256","internalType":"uint256"},{"name":"exists","type":"bool","internalType":"bool"}],"stateMutability":"view"},{"type":"function","name":"unstake","inputs":[],"outputs":[],"stateMutability":"nonpayable"}],"bytecode":{"object":"0x6080604052600a60025562278d006003556064600455348015601f575f5ffd5b50604051610735380380610735833981016040819052603c91605f565b5f80546001600160a01b0319166001600160a01b0392909216919091179055608a565b5f60208284031215606e575f5ffd5b81516001600160a01b03811681146083575f5ffd5b9392505050565b61069e806100975f395ff3fe608060405234801561000f575f5ffd5b5060043610610085575f3560e01c80633fd8b02f116100585780633fd8b02f14610126578063a694fc3a1461012f578063d82e396214610142578063deeafb6514610155575f5ffd5b806316934fc414610089578063214405a9146100db5780632def6620146100f2578063301d9bef146100fc575b5f5ffd5b6100b961009736600461058f565b600160208190525f918252604090912080549181015460029091015460ff1683565b6040805193845260208401929092521515908201526060015b60405180910390f35b6100e460025481565b6040519081526020016100d2565b6100fa61015e565b005b5f5461010e906001600160a01b031681565b6040516001600160a01b0390911681526020016100d2565b6100e460035481565b6100fa61013d3660046105bc565b61033c565b6100e461015036600461058f565b6104ea565b6100e460045481565b335f9081526001602081815260409283902083516060810185528154815292810154918301919091526002015460ff161515918101829052906101d95760405162461bcd60e51b815260206004820152600e60248201526d139bc81cdd185ad948199bdd5b9960921b60448201526064015b60405180910390fd5b60035481602001516101eb91906105e7565b4210156102325760405162461bcd60e51b8152602060048201526015602482015274131bd8dac81c195c9a5bd9081b9bdd08195b991959605a1b60448201526064016101d0565b5f61023c336104ea565b5f8054845192935090916001600160a01b039091169063a9059cbb9033906102659086906105e7565b6040516001600160e01b031960e085901b1681526001600160a01b03909216600483015260248201526044016020604051808303815f875af11580156102ad573d5f5f3e3d5ffd5b505050506040513d601f19601f820116820180604052508101906102d19190610600565b9050806103125760405162461bcd60e51b815260206004820152600f60248201526e151c985b9cd9995c8819985a5b1959608a1b60448201526064016101d0565b5050335f908152600160208190526040822082815590810191909155600201805460ff1916905550565b5f811161038b5760405162461bcd60e51b815260206004820152601860248201527f43616e6e6f74207374616b65207a65726f20746f6b656e73000000000000000060448201526064016101d0565b335f9081526001602052604090206002015460ff16156103e45760405162461bcd60e51b8152602060048201526014602482015273416c726561647920686176652061207374616b6560601b60448201526064016101d0565b5f80546040516323b872dd60e01b8152336004820152306024820152604481018490526001600160a01b03909116906323b872dd906064016020604051808303815f875af1158015610438573d5f5f3e3d5ffd5b505050506040513d601f19601f8201168201806040525081019061045c9190610600565b90508061049d5760405162461bcd60e51b815260206004820152600f60248201526e151c985b9cd9995c8819985a5b1959608a1b60448201526064016101d0565b50604080516060810182529182524260208084019182526001848401818152335f908152928290529390912093518455905190830155516002909101805460ff1916911515919091179055565b6001600160a01b0381165f908152600160208181526040808420815160608101835281548152938101549284019290925260029091015460ff16151590820181905261053857505f92915050565b5f816020015142610549919061061f565b90505f6105596201518083610632565b90505f618e9482600254865f01516105719190610651565b61057b9190610651565b6105859190610632565b9695505050505050565b5f6020828403121561059f575f5ffd5b81356001600160a01b03811681146105b5575f5ffd5b9392505050565b5f602082840312156105cc575f5ffd5b5035919050565b634e487b7160e01b5f52601160045260245ffd5b808201808211156105fa576105fa6105d3565b92915050565b5f60208284031215610610575f5ffd5b815180151581146105b5575f5ffd5b818103818111156105fa576105fa6105d3565b5f8261064c57634e487b7160e01b5f52601260045260245ffd5b500490565b80820281158282048414176105fa576105fa6105d356fea2646970667358221220ec5f6a29978490a9177caaaa03baa0b46b3a18ad6b719a52c60d7a20c58d714764736f6c634300081c0033","linkReferences":{}},"methodIdentifiers":{"baseAPY()":"214405a9","bronzeMultiplier()":"deeafb65","calculateReward(address)":"d82e3962","lockPeriod()":"3fd8b02f","peoToken()":"301d9bef","stake(uint256)":"a694fc3a","stakes(address)":"16934fc4","unstake()":"2def6620"},"id":28}