{"abi":[{"type":"function","name":"clearStake","inputs":[{"name":"user","type":"address","internalType":"address"}],"outputs":[],"stateMutability":"nonpayable"},{"type":"function","name":"setStake","inputs":[{"name":"user","type":"address","internalType":"address"},{"name":"amount","type":"uint256","internalType":"uint256"},{"name":"startTimestamp","type":"uint256","internalType":"uint256"}],"outputs":[],"stateMutability":"nonpayable"},{"type":"function","name":"stakes","inputs":[{"name":"user","type":"address","internalType":"address"}],"outputs":[{"name":"","type":"uint256","internalType":"uint256"},{"name":"","type":"uint256","internalType":"uint256"},{"name":"","type":"bool","internalType":"bool"}],"stateMutability":"view"}],"bytecode":{"object":"0x6080604052348015600e575f5ffd5b506103d88061001c5f395ff3fe608060405234801561000f575f5ffd5b506004361061003f575f3560e01c806316934fc4146100435780631bbfbe5a146100755780633ed4044414610091575b5f5ffd5b61005d60048036038101906100589190610296565b6100ad565b60405161006c939291906102f3565b60405180910390f35b61008f600480360381019061008a9190610352565b610143565b005b6100ab60048036038101906100a69190610296565b6101d6565b005b5f5f5f5f5f5f8673ffffffffffffffffffffffffffffffffffffffff1673ffffffffffffffffffffffffffffffffffffffff1681526020019081526020015f206040518060600160405290815f820154815260200160018201548152602001600282015f9054906101000a900460ff1615151515815250509050805f015181602001518260400151935093509350509193909250565b6040518060600160405280838152602001828152602001600115158152505f5f8573ffffffffffffffffffffffffffffffffffffffff1673ffffffffffffffffffffffffffffffffffffffff1681526020019081526020015f205f820151815f0155602082015181600101556040820151816002015f6101000a81548160ff021916908315150217905550905050505050565b5f5f8273ffffffffffffffffffffffffffffffffffffffff1673ffffffffffffffffffffffffffffffffffffffff1681526020019081526020015f205f5f82015f9055600182015f9055600282015f6101000a81549060ff0219169055505050565b5f5ffd5b5f73ffffffffffffffffffffffffffffffffffffffff82169050919050565b5f6102658261023c565b9050919050565b6102758161025b565b811461027f575f5ffd5b50565b5f813590506102908161026c565b92915050565b5f602082840312156102ab576102aa610238565b5b5f6102b884828501610282565b91505092915050565b5f819050919050565b6102d3816102c1565b82525050565b5f8115159050919050565b6102ed816102d9565b82525050565b5f6060820190506103065f8301866102ca565b61031360208301856102ca565b61032060408301846102e4565b949350505050565b610331816102c1565b811461033b575f5ffd5b50565b5f8135905061034c81610328565b92915050565b5f5f5f6060848603121561036957610368610238565b5b5f61037686828701610282565b93505060206103878682870161033e565b92505060406103988682870161033e565b915050925092509256fea2646970667358221220a3a0f301e53d60cd72ab32a1cf48a6c64f75931c0c947ec336d82834e1ef93f264736f6c634300081c0033","linkReferences":{}},"methodIdentifiers":{"clearStake(address)":"3ed40444","setStake(address,uint256,uint256)":"1bbfbe5a","stakes(address)":"16934fc4"},"id":40}