{"abi":[{"type":"function","name":"clearStake","inputs":[{"name":"user","type":"address","internalType":"address"}],"outputs":[],"stateMutability":"nonpayable"},{"type":"function","name":"setStake","inputs":[{"name":"user","type":"address","internalType":"address"},{"name":"amount","type":"uint256","internalType":"uint256"},{"name":"startTimestamp","type":"uint256","internalType":"uint256"}],"outputs":[],"stateMutability":"nonpayable"},{"type":"function","name":"stakes","inputs":[{"name":"user","type":"address","internalType":"address"}],"outputs":[{"name":"","type":"uint256","internalType":"uint256"},{"name":"","type":"uint256","internalType":"uint256"},{"name":"","type":"bool","internalType":"bool"}],"stateMutability":"view"}],"bytecode":{"object":"0x6080604052348015600e575f5ffd5b506101fb8061001c5f395ff3fe608060405234801561000f575f5ffd5b506004361061003f575f3560e01c806316934fc4146100435780631bbfbe5a146100b85780633ed404441461011e575b5f5ffd5b610097610051366004610175565b6001600160a01b03165f908152602081815260409182902082516060810184528154808252600183015493820184905260029092015460ff161515930183905292909190565b60408051938452602084019290925215159082015260600160405180910390f35b61011c6100c6366004610195565b60408051606081018252928352602080840192835260018483018181526001600160a01b03969096165f908152918290529190209251835590519082015590516002909101805460ff1916911515919091179055565b005b61011c61012c366004610175565b6001600160a01b03165f9081526020819052604081208181556001810191909155600201805460ff19169055565b80356001600160a01b0381168114610170575f5ffd5b919050565b5f60208284031215610185575f5ffd5b61018e8261015a565b9392505050565b5f5f5f606084860312156101a7575f5ffd5b6101b08461015a565b9560208501359550604090940135939250505056fea26469706673582212207dad73edf016715abf5070f6493dac57d0b698e0acb3a9be7d25c2ed20f8b45c64736f6c634300081c0033","linkReferences":{}},"methodIdentifiers":{"clearStake(address)":"3ed40444","setStake(address,uint256,uint256)":"1bbfbe5a","stakes(address)":"16934fc4"},"id":40}