{"abi":[{"type":"constructor","inputs":[{"name":"_peoToken","type":"address","internalType":"address"},{"name":"_staking","type":"address","internalType":"address"}],"stateMutability":"nonpayable"},{"type":"function","name":"getScore","inputs":[{"name":"user","type":"address","internalType":"address"}],"outputs":[{"name":"","type":"uint256","internalType":"uint256"}],"stateMutability":"view"},{"type":"function","name":"owner","inputs":[],"outputs":[{"name":"","type":"address","internalType":"address"}],"stateMutability":"view"},{"type":"function","name":"peoToken","inputs":[],"outputs":[{"name":"","type":"address","internalType":"contract IPeoCoin"}],"stateMutability":"view"},{"type":"function","name":"renounceOwnership","inputs":[],"outputs":[],"stateMutability":"nonpayable"},{"type":"function","name":"stakeWeight","inputs":[],"outputs":[{"name":"","type":"uint256","internalType":"uint256"}],"stateMutability":"view"},{"type":"function","name":"staking","inputs":[],"outputs":[{"name":"","type":"address","internalType":"contract IStaking"}],"stateMutability":"view"},{"type":"function","name":"timeWeight","inputs":[],"outputs":[{"name":"","type":"uint256","internalType":"uint256"}],"stateMutability":"view"},{"type":"function","name":"tokenWeight","inputs":[],"outputs":[{"name":"","type":"uint256","internalType":"uint256"}],"stateMutability":"view"},{"type":"function","name":"transferOwnership","inputs":[{"name":"newOwner","type":"address","internalType":"address"}],"outputs":[],"stateMutability":"nonpayable"},{"type":"function","name":"updateWeights","inputs":[{"name":"_tokenWeight","type":"uint256","internalType":"uint256"},{"name":"_stakeWeight","type":"uint256","internalType":"uint256"},{"name":"_timeWeight","type":"uint256","internalType":"uint256"}],"outputs":[],"stateMutability":"nonpayable"},{"type":"event","name":"OwnershipTransferred","inputs":[{"name":"previousOwner","type":"address","indexed":true,"internalType":"address"},{"name":"newOwner","type":"address","indexed":true,"internalType":"address"}],"anonymous":false},{"type":"error","name":"OwnableInvalidOwner","inputs":[{"name":"owner","type":"address","internalType":"address"}]},{"type":"error","name":"OwnableUnauthorizedAccount","inputs":[{"name":"account","type":"address","internalType":"address"}]}],"bytecode":{"object":"0x608060405260016003556002600455600160055534801561001e575f5ffd5b5060405161063738038061063783398101604081905261003d91610107565b338061006257604051631e4fbdf760e01b81525f600482015260240160405180910390fd5b61006b8161009d565b50600180546001600160a01b039384166001600160a01b03199182161790915560028054929093169116179055610138565b5f80546001600160a01b038381166001600160a01b0319831681178455604051919092169283917f8be0079c531659141344cd1fd0a4f28419497f9722a3daafe3b4186f6b6457e09190a35050565b80516001600160a01b0381168114610102575f5ffd5b919050565b5f5f60408385031215610118575f5ffd5b610121836100ec565b915061012f602084016100ec565b90509250929050565b6104f2806101455f395ff3fe608060405234801561000f575f5ffd5b506004361061009b575f3560e01c80638da5cb5b116100635780638da5cb5b1461010c5780638ed0eabd1461011c578063a62c83211461012f578063d47875d014610138578063f2fde38b1461014b575f5ffd5b8063267b11671461009f578063301d9bef146100bb5780634cf088d9146100e65780636d899e9e146100f9578063715018a614610102575b5f5ffd5b6100a860045481565b6040519081526020015b60405180910390f35b6001546100ce906001600160a01b031681565b6040516001600160a01b0390911681526020016100b2565b6002546100ce906001600160a01b031681565b6100a860035481565b61010a61015e565b005b5f546001600160a01b03166100ce565b61010a61012a36600461039e565b610171565b6100a860055481565b6100a86101463660046103c7565b610187565b61010a6101593660046103c7565b6102e1565b610166610323565b61016f5f61034f565b565b610179610323565b600392909255600455600555565b6001546040516370a0823160e01b81526001600160a01b0383811660048301525f9283929116906370a0823190602401602060405180830381865afa1580156101d2573d5f5f3e3d5ffd5b505050506040513d601f19601f820116820180604052508101906101f691906103f4565b6002546040516305a4d3f160e21b81526001600160a01b0386811660048301529293505f92839283929116906316934fc490602401606060405180830381865afa158015610246573d5f5f3e3d5ffd5b505050506040513d601f19601f8201168201806040525081019061026a919061040b565b919450925090505f81156102bb575f610283844261045a565b6005549091506102966201518083610473565b6102a09190610492565b6004546102ad9087610492565b6102b791906104a9565b9150505b5f81600354876102cb9190610492565b6102d591906104a9565b98975050505050505050565b6102e9610323565b6001600160a01b03811661031757604051631e4fbdf760e01b81525f60048201526024015b60405180910390fd5b6103208161034f565b50565b5f546001600160a01b0316331461016f5760405163118cdaa760e01b815233600482015260240161030e565b5f80546001600160a01b038381166001600160a01b0319831681178455604051919092169283917f8be0079c531659141344cd1fd0a4f28419497f9722a3daafe3b4186f6b6457e09190a35050565b5f5f5f606084860312156103b0575f5ffd5b505081359360208301359350604090920135919050565b5f602082840312156103d7575f5ffd5b81356001600160a01b03811681146103ed575f5ffd5b9392505050565b5f60208284031215610404575f5ffd5b5051919050565b5f5f5f6060848603121561041d575f5ffd5b8351602085015160408601519194509250801515811461043b575f5ffd5b809150509250925092565b634e487b7160e01b5f52601160045260245ffd5b8181038181111561046d5761046d610446565b92915050565b5f8261048d57634e487b7160e01b5f52601260045260245ffd5b500490565b808202811582820484141761046d5761046d610446565b8082018082111561046d5761046d61044656fea264697066735822122010668cd0b07fa3018ceac6c4cf806da5bdd490868efd1ea0a9e258deb404e2d964736f6c634300081c0033","linkReferences":{}},"methodIdentifiers":{"getScore(address)":"d47875d0","owner()":"8da5cb5b","peoToken()":"301d9bef","renounceOwnership()":"715018a6","stakeWeight()":"267b1167","staking()":"4cf088d9","timeWeight()":"a62c8321","tokenWeight()":"6d899e9e","transferOwnership(address)":"f2fde38b","updateWeights(uint256,uint256,uint256)":"8ed0eabd"},"id":27}