{"abi":[{"type":"constructor","inputs":[{"name":"_peoToken","type":"address","internalType":"address"},{"name":"_staking","type":"address","internalType":"address"}],"stateMutability":"nonpayable"},{"type":"function","name":"getScore","inputs":[{"name":"user","type":"address","internalType":"address"}],"outputs":[{"name":"","type":"uint256","internalType":"uint256"}],"stateMutability":"view"},{"type":"function","name":"owner","inputs":[],"outputs":[{"name":"","type":"address","internalType":"address"}],"stateMutability":"view"},{"type":"function","name":"peoToken","inputs":[],"outputs":[{"name":"","type":"address","internalType":"contract IPeoCoin"}],"stateMutability":"view"},{"type":"function","name":"renounceOwnership","inputs":[],"outputs":[],"stateMutability":"nonpayable"},{"type":"function","name":"stakeWeight","inputs":[],"outputs":[{"name":"","type":"uint256","internalType":"uint256"}],"stateMutability":"view"},{"type":"function","name":"staking","inputs":[],"outputs":[{"name":"","type":"address","internalType":"contract IStaking"}],"stateMutability":"view"},{"type":"function","name":"timeWeight","inputs":[],"outputs":[{"name":"","type":"uint256","internalType":"uint256"}],"stateMutability":"view"},{"type":"function","name":"tokenWeight","inputs":[],"outputs":[{"name":"","type":"uint256","internalType":"uint256"}],"stateMutability":"view"},{"type":"function","name":"transferOwnership","inputs":[{"name":"newOwner","type":"address","internalType":"address"}],"outputs":[],"stateMutability":"nonpayable"},{"type":"function","name":"updateWeights","inputs":[{"name":"_tokenWeight","type":"uint256","internalType":"uint256"},{"name":"_stakeWeight","type":"uint256","internalType":"uint256"},{"name":"_timeWeight","type":"uint256","internalType":"uint256"}],"outputs":[],"stateMutability":"nonpayable"},{"type":"event","name":"OwnershipTransferred","inputs":[{"name":"previousOwner","type":"address","indexed":true,"internalType":"address"},{"name":"newOwner","type":"address","indexed":true,"internalType":"address"}],"anonymous":false},{"type":"error","name":"OwnableInvalidOwner","inputs":[{"name":"owner","type":"address","internalType":"address"}]},{"type":"error","name":"OwnableUnauthorizedAccount","inputs":[{"name":"account","type":"address","internalType":"address"}]}],"bytecode":{"object":"0x608060405260016003556002600455600160055534801561001e575f5ffd5b50604051610d19380380610d1983398181016040528101906100409190610267565b335f73ffffffffffffffffffffffffffffffffffffffff168173ffffffffffffffffffffffffffffffffffffffff16036100b1575f6040517f1e4fbdf70000000000000000000000000000000000000000000000000000000081526004016100a891906102b4565b60405180910390fd5b6100c08161014860201b60201c565b508160015f6101000a81548173ffffffffffffffffffffffffffffffffffffffff021916908373ffffffffffffffffffffffffffffffffffffffff1602179055508060025f6101000a81548173ffffffffffffffffffffffffffffffffffffffff021916908373ffffffffffffffffffffffffffffffffffffffff16021790555050506102cd565b5f5f5f9054906101000a900473ffffffffffffffffffffffffffffffffffffffff169050815f5f6101000a81548173ffffffffffffffffffffffffffffffffffffffff021916908373ffffffffffffffffffffffffffffffffffffffff1602179055508173ffffffffffffffffffffffffffffffffffffffff168173ffffffffffffffffffffffffffffffffffffffff167f8be0079c531659141344cd1fd0a4f28419497f9722a3daafe3b4186f6b6457e060405160405180910390a35050565b5f5ffd5b5f73ffffffffffffffffffffffffffffffffffffffff82169050919050565b5f6102368261020d565b9050919050565b6102468161022c565b8114610250575f5ffd5b50565b5f815190506102618161023d565b92915050565b5f5f6040838503121561027d5761027c610209565b5b5f61028a85828601610253565b925050602061029b85828601610253565b9150509250929050565b6102ae8161022c565b82525050565b5f6020820190506102c75f8301846102a5565b92915050565b610a3f806102da5f395ff3fe608060405234801561000f575f5ffd5b506004361061009c575f3560e01c80638da5cb5b116100645780638da5cb5b146101225780638ed0eabd14610140578063a62c83211461015c578063d47875d01461017a578063f2fde38b146101aa5761009c565b8063267b1167146100a0578063301d9bef146100be5780634cf088d9146100dc5780636d899e9e146100fa578063715018a614610118575b5f5ffd5b6100a86101c6565b6040516100b59190610623565b60405180910390f35b6100c66101cc565b6040516100d391906106b6565b60405180910390f35b6100e46101f1565b6040516100f191906106ef565b60405180910390f35b610102610216565b60405161010f9190610623565b60405180910390f35b61012061021c565b005b61012a61022f565b6040516101379190610728565b60405180910390f35b61015a6004803603810190610155919061076f565b610256565b005b610164610278565b6040516101719190610623565b60405180910390f35b610194600480360381019061018f91906107e9565b61027e565b6040516101a19190610623565b60405180910390f35b6101c460048036038101906101bf91906107e9565b610438565b005b60045481565b60015f9054906101000a900473ffffffffffffffffffffffffffffffffffffffff1681565b60025f9054906101000a900473ffffffffffffffffffffffffffffffffffffffff1681565b60035481565b6102246104bc565b61022d5f610543565b565b5f5f5f9054906101000a900473ffffffffffffffffffffffffffffffffffffffff16905090565b61025e6104bc565b826003819055508160048190555080600581905550505050565b60055481565b5f5f60015f9054906101000a900473ffffffffffffffffffffffffffffffffffffffff1673ffffffffffffffffffffffffffffffffffffffff166370a08231846040518263ffffffff1660e01b81526004016102da9190610728565b602060405180830381865afa1580156102f5573d5f5f3e3d5ffd5b505050506040513d601f19601f820116820180604052508101906103199190610828565b90505f5f5f60025f9054906101000a900473ffffffffffffffffffffffffffffffffffffffff1673ffffffffffffffffffffffffffffffffffffffff166316934fc4876040518263ffffffff1660e01b81526004016103789190610728565b606060405180830381865afa158015610393573d5f5f3e3d5ffd5b505050506040513d601f19601f820116820180604052508101906103b79190610888565b9250925092505f5f9050811561040e575f83426103d49190610905565b905060055462015180826103e89190610965565b6103f29190610995565b600454866104009190610995565b61040a91906109d6565b9150505b5f816003548761041e9190610995565b61042891906109d6565b9050809650505050505050919050565b6104406104bc565b5f73ffffffffffffffffffffffffffffffffffffffff168173ffffffffffffffffffffffffffffffffffffffff16036104b0575f6040517f1e4fbdf70000000000000000000000000000000000000000000000000000000081526004016104a79190610728565b60405180910390fd5b6104b981610543565b50565b6104c4610604565b73ffffffffffffffffffffffffffffffffffffffff166104e261022f565b73ffffffffffffffffffffffffffffffffffffffff161461054157610505610604565b6040517f118cdaa70000000000000000000000000000000000000000000000000000000081526004016105389190610728565b60405180910390fd5b565b5f5f5f9054906101000a900473ffffffffffffffffffffffffffffffffffffffff169050815f5f6101000a81548173ffffffffffffffffffffffffffffffffffffffff021916908373ffffffffffffffffffffffffffffffffffffffff1602179055508173ffffffffffffffffffffffffffffffffffffffff168173ffffffffffffffffffffffffffffffffffffffff167f8be0079c531659141344cd1fd0a4f28419497f9722a3daafe3b4186f6b6457e060405160405180910390a35050565b5f33905090565b5f819050919050565b61061d8161060b565b82525050565b5f6020820190506106365f830184610614565b92915050565b5f73ffffffffffffffffffffffffffffffffffffffff82169050919050565b5f819050919050565b5f61067e6106796106748461063c565b61065b565b61063c565b9050919050565b5f61068f82610664565b9050919050565b5f6106a082610685565b9050919050565b6106b081610696565b82525050565b5f6020820190506106c95f8301846106a7565b92915050565b5f6106d982610685565b9050919050565b6106e9816106cf565b82525050565b5f6020820190506107025f8301846106e0565b92915050565b5f6107128261063c565b9050919050565b61072281610708565b82525050565b5f60208201905061073b5f830184610719565b92915050565b5f5ffd5b61074e8161060b565b8114610758575f5ffd5b50565b5f8135905061076981610745565b92915050565b5f5f5f6060848603121561078657610785610741565b5b5f6107938682870161075b565b93505060206107a48682870161075b565b92505060406107b58682870161075b565b9150509250925092565b6107c881610708565b81146107d2575f5ffd5b50565b5f813590506107e3816107bf565b92915050565b5f602082840312156107fe576107fd610741565b5b5f61080b848285016107d5565b91505092915050565b5f8151905061082281610745565b92915050565b5f6020828403121561083d5761083c610741565b5b5f61084a84828501610814565b91505092915050565b5f8115159050919050565b61086781610853565b8114610871575f5ffd5b50565b5f815190506108828161085e565b92915050565b5f5f5f6060848603121561089f5761089e610741565b5b5f6108ac86828701610814565b93505060206108bd86828701610814565b92505060406108ce86828701610874565b9150509250925092565b7f4e487b71000000000000000000000000000000000000000000000000000000005f52601160045260245ffd5b5f61090f8261060b565b915061091a8361060b565b9250828203905081811115610932576109316108d8565b5b92915050565b7f4e487b71000000000000000000000000000000000000000000000000000000005f52601260045260245ffd5b5f61096f8261060b565b915061097a8361060b565b92508261098a57610989610938565b5b828204905092915050565b5f61099f8261060b565b91506109aa8361060b565b92508282026109b88161060b565b915082820484148315176109cf576109ce6108d8565b5b5092915050565b5f6109e08261060b565b91506109eb8361060b565b9250828201905080821115610a0357610a026108d8565b5b9291505056fea264697066735822122070b811fff8317c468d1ce0a75457444bd23cf687a19cebd9c73201a867882c3664736f6c634300081c0033","linkReferences":{}},"methodIdentifiers":{"getScore(address)":"d47875d0","owner()":"8da5cb5b","peoToken()":"301d9bef","renounceOwnership()":"715018a6","stakeWeight()":"267b1167","staking()":"4cf088d9","timeWeight()":"a62c8321","tokenWeight()":"6d899e9e","transferOwnership(address)":"f2fde38b","updateWeights(uint256,uint256,uint256)":"8ed0eabd"},"id":27}