{"abi":[{"type":"constructor","inputs":[{"name":"_peoToken","type":"address","internalType":"address"},{"name":"_dcs","type":"address","internalType":"address"}],"stateMutability":"nonpayable"},{"type":"function","name":"createProposal","inputs":[{"name":"description","type":"string","internalType":"string"}],"outputs":[],"stateMutability":"nonpayable"},{"type":"function","name":"dcs","inputs":[],"outputs":[{"name":"","type":"address","internalType":"contract IDCS"}],"stateMutability":"view"},{"type":"function","name":"executeProposal","inputs":[{"name":"proposalId","type":"uint256","internalType":"uint256"}],"outputs":[],"stateMutability":"nonpayable"},{"type":"function","name":"hasVoted","inputs":[{"name":"","type":"uint256","internalType":"uint256"},{"name":"","type":"address","internalType":"address"}],"outputs":[{"name":"","type":"bool","internalType":"bool"}],"stateMutability":"view"},{"type":"function","name":"majorityPercentage","inputs":[],"outputs":[{"name":"","type":"uint256","internalType":"uint256"}],"stateMutability":"view"},{"type":"function","name":"owner","inputs":[],"outputs":[{"name":"","type":"address","internalType":"address"}],"stateMutability":"view"},{"type":"function","name":"peoToken","inputs":[],"outputs":[{"name":"","type":"address","internalType":"contract IPeoCoin"}],"stateMutability":"view"},{"type":"function","name":"proposals","inputs":[{"name":"","type":"uint256","internalType":"uint256"}],"outputs":[{"name":"proposer","type":"address","internalType":"address"},{"name":"description","type":"string","internalType":"string"},{"name":"startTime","type":"uint256","internalType":"uint256"},{"name":"endTime","type":"uint256","internalType":"uint256"},{"name":"yesVotes","type":"uint256","internalType":"uint256"},{"name":"noVotes","type":"uint256","internalType":"uint256"},{"name":"executed","type":"bool","internalType":"bool"}],"stateMutability":"view"},{"type":"function","name":"quorum","inputs":[],"outputs":[{"name":"","type":"uint256","internalType":"uint256"}],"stateMutability":"view"},{"type":"function","name":"renounceOwnership","inputs":[],"outputs":[],"stateMutability":"nonpayable"},{"type":"function","name":"transferOwnership","inputs":[{"name":"newOwner","type":"address","internalType":"address"}],"outputs":[],"stateMutability":"nonpayable"},{"type":"function","name":"updateParameters","inputs":[{"name":"_votingPeriod","type":"uint256","internalType":"uint256"},{"name":"_quorum","type":"uint256","internalType":"uint256"},{"name":"_majorityPercentage","type":"uint256","internalType":"uint256"}],"outputs":[],"stateMutability":"nonpayable"},{"type":"function","name":"vote","inputs":[{"name":"proposalId","type":"uint256","internalType":"uint256"},{"name":"support","type":"bool","internalType":"bool"}],"outputs":[],"stateMutability":"nonpayable"},{"type":"function","name":"votingPeriod","inputs":[],"outputs":[{"name":"","type":"uint256","internalType":"uint256"}],"stateMutability":"view"},{"type":"event","name":"OwnershipTransferred","inputs":[{"name":"previousOwner","type":"address","indexed":true,"internalType":"address"},{"name":"newOwner","type":"address","indexed":true,"internalType":"address"}],"anonymous":false},{"type":"event","name":"ProposalCreated","inputs":[{"name":"proposalId","type":"uint256","indexed":false,"internalType":"uint256"},{"name":"proposer","type":"address","indexed":false,"internalType":"address"},{"name":"description","type":"string","indexed":false,"internalType":"string"}],"anonymous":false},{"type":"event","name":"ProposalExecuted","inputs":[{"name":"proposalId","type":"uint256","indexed":false,"internalType":"uint256"}],"anonymous":false},{"type":"event","name":"VoteCast","inputs":[{"name":"proposalId","type":"uint256","indexed":false,"internalType":"uint256"},{"name":"voter","type":"address","indexed":false,"internalType":"address"},{"name":"support","type":"bool","indexed":false,"internalType":"bool"},{"name":"weight","type":"uint256","indexed":false,"internalType":"uint256"}],"anonymous":false},{"type":"error","name":"OwnableInvalidOwner","inputs":[{"name":"owner","type":"address","internalType":"address"}]},{"type":"error","name":"OwnableUnauthorizedAccount","inputs":[{"name":"account","type":"address","internalType":"address"}]}],"bytecode":{"object":"0x60806040526203f480600555683635c9adc5dea000006006556032600755348015610028575f5ffd5b50604051611ec4380380611ec4833981810160405281019061004a9190610271565b335f73ffffffffffffffffffffffffffffffffffffffff168173ffffffffffffffffffffffffffffffffffffffff16036100bb575f6040517f1e4fbdf70000000000000000000000000000000000000000000000000000000081526004016100b291906102be565b60405180910390fd5b6100ca8161015260201b60201c565b508160015f6101000a81548173ffffffffffffffffffffffffffffffffffffffff021916908373ffffffffffffffffffffffffffffffffffffffff1602179055508060025f6101000a81548173ffffffffffffffffffffffffffffffffffffffff021916908373ffffffffffffffffffffffffffffffffffffffff16021790555050506102d7565b5f5f5f9054906101000a900473ffffffffffffffffffffffffffffffffffffffff169050815f5f6101000a81548173ffffffffffffffffffffffffffffffffffffffff021916908373ffffffffffffffffffffffffffffffffffffffff1602179055508173ffffffffffffffffffffffffffffffffffffffff168173ffffffffffffffffffffffffffffffffffffffff167f8be0079c531659141344cd1fd0a4f28419497f9722a3daafe3b4186f6b6457e060405160405180910390a35050565b5f5ffd5b5f73ffffffffffffffffffffffffffffffffffffffff82169050919050565b5f61024082610217565b9050919050565b61025081610236565b811461025a575f5ffd5b50565b5f8151905061026b81610247565b92915050565b5f5f6040838503121561028757610286610213565b5b5f6102948582860161025d565b92505060206102a58582860161025d565b9150509250929050565b6102b881610236565b82525050565b5f6020820190506102d15f8301846102af565b92915050565b611be0806102e45f395ff3fe608060405234801561000f575f5ffd5b50600436106100e8575f3560e01c8063599c7bd11161008a57806395142ede1161006457806395142ede1461022a578063c9d27afe14610248578063f2fde38b14610264578063f76d50ad14610280576100e8565b8063599c7bd1146101e4578063715018a6146102025780638da5cb5b1461020c576100e8565b80631703a018116100c65780631703a0181461015c578063301d9bef1461017a578063438596321461019857806349c2a1a6146101c8576100e8565b8063013cf08b146100ec57806302a251a3146101225780630d61b51914610140575b5f5ffd5b61010660048036038101906101019190610e54565b61029c565b6040516101199796959493929190610f57565b60405180910390f35b61012a61039a565b6040516101379190610fcb565b60405180910390f35b61015a60048036038101906101559190610e54565b6103a0565b005b6101646105b9565b6040516101719190610fcb565b60405180910390f35b6101826105bf565b60405161018f919061103f565b60405180910390f35b6101b260048036038101906101ad9190611082565b6105e4565b6040516101bf91906110c0565b60405180910390f35b6101e260048036038101906101dd919061113a565b61060e565b005b6101ec6108a0565b6040516101f99190610fcb565b60405180910390f35b61020a6108a6565b005b6102146108b9565b6040516102219190611185565b60405180910390f35b6102326108e0565b60405161023f91906111be565b60405180910390f35b610262600480360381019061025d9190611201565b610905565b005b61027e6004803603810190610279919061123f565b610c24565b005b61029a6004803603810190610295919061126a565b610ca8565b005b600381815481106102ab575f80fd5b905f5260205f2090600702015f91509050805f015f9054906101000a900473ffffffffffffffffffffffffffffffffffffffff16908060010180546102ef906112e7565b80601f016020809104026020016040519081016040528092919081815260200182805461031b906112e7565b80156103665780601f1061033d57610100808354040283529160200191610366565b820191905f5260205f20905b81548152906001019060200180831161034957829003601f168201915b505050505090806002015490806003015490806004015490806005015490806006015f9054906101000a900460ff16905087565b60055481565b60038054905081106103e7576040517f08c379a00000000000000000000000000000000000000000000000000000000081526004016103de90611361565b60405180910390fd5b5f600382815481106103fc576103fb61137f565b5b905f5260205f209060070201905080600301544211610450576040517f08c379a0000000000000000000000000000000000000000000000000000000008152600401610447906113f6565b60405180910390fd5b806006015f9054906101000a900460ff16156104a1576040517f08c379a00000000000000000000000000000000000000000000000000000000081526004016104989061145e565b60405180910390fd5b5f816005015482600401546104b691906114a9565b90506006548110156104fd576040517f08c379a00000000000000000000000000000000000000000000000000000000081526004016104f490611526565b60405180910390fd5b5f81606484600401546105109190611544565b61051a91906115b2565b90506007548111610560576040517f08c379a00000000000000000000000000000000000000000000000000000000081526004016105579061162c565b60405180910390fd5b6001836006015f6101000a81548160ff0219169083151502179055507f712ae1383f79ac853f8d882153778e0260ef8f03b504e2866e0593e04d2b291f846040516105ab9190610fcb565b60405180910390a150505050565b60065481565b60015f9054906101000a900473ffffffffffffffffffffffffffffffffffffffff1681565b6004602052815f5260405f20602052805f5260405f205f915091509054906101000a900460ff1681565b5f60015f9054906101000a900473ffffffffffffffffffffffffffffffffffffffff1673ffffffffffffffffffffffffffffffffffffffff166370a08231336040518263ffffffff1660e01b81526004016106699190611185565b602060405180830381865afa158015610684573d5f5f3e3d5ffd5b505050506040513d601f19601f820116820180604052508101906106a8919061165e565b116106e8576040517f08c379a00000000000000000000000000000000000000000000000000000000081526004016106df906116d3565b60405180910390fd5b60036040518060e001604052803373ffffffffffffffffffffffffffffffffffffffff16815260200184848080601f0160208091040260200160405190810160405280939291908181526020018383808284375f81840152601f19601f8201169050808301925050505050505081526020014281526020016005544261076e91906114a9565b81526020015f81526020015f81526020015f1515815250908060018154018082558091505060019003905f5260205f2090600702015f909190919091505f820151815f015f6101000a81548173ffffffffffffffffffffffffffffffffffffffff021916908373ffffffffffffffffffffffffffffffffffffffff160217905550602082015181600101908161080491906118b5565b5060408201518160020155606082015181600301556080820151816004015560a0820151816005015560c0820151816006015f6101000a81548160ff02191690831515021790555050507f7585f467599d0f008985f231af99293be388626ac16ca59505c2f8f88969cd6360016003805490506108819190611984565b33848460405161089494939291906119f1565b60405180910390a15050565b60075481565b6108ae610cca565b6108b75f610d51565b565b5f5f5f9054906101000a900473ffffffffffffffffffffffffffffffffffffffff16905090565b60025f9054906101000a900473ffffffffffffffffffffffffffffffffffffffff1681565b600380549050821061094c576040517f08c379a000000000000000000000000000000000000000000000000000000000815260040161094390611361565b60405180910390fd5b5f600383815481106109615761096061137f565b5b905f5260205f209060070201905080600201544210158015610987575080600301544211155b6109c6576040517f08c379a00000000000000000000000000000000000000000000000000000000081526004016109bd90611a79565b60405180910390fd5b60045f8481526020019081526020015f205f3373ffffffffffffffffffffffffffffffffffffffff1673ffffffffffffffffffffffffffffffffffffffff1681526020019081526020015f205f9054906101000a900460ff1615610a5f576040517f08c379a0000000000000000000000000000000000000000000000000000000008152600401610a5690611ae1565b60405180910390fd5b600160045f8581526020019081526020015f205f3373ffffffffffffffffffffffffffffffffffffffff1673ffffffffffffffffffffffffffffffffffffffff1681526020019081526020015f205f6101000a81548160ff0219169083151502179055505f60025f9054906101000a900473ffffffffffffffffffffffffffffffffffffffff1673ffffffffffffffffffffffffffffffffffffffff1663d47875d0336040518263ffffffff1660e01b8152600401610b1e9190611185565b602060405180830381865afa158015610b39573d5f5f3e3d5ffd5b505050506040513d601f19601f82011682018060405250810190610b5d919061165e565b90505f8111610ba1576040517f08c379a0000000000000000000000000000000000000000000000000000000008152600401610b9890611b49565b60405180910390fd5b8215610bc65780826004015f828254610bba91906114a9565b92505081905550610be1565b80826005015f828254610bd991906114a9565b925050819055505b7fcbdf6214089cba887ecbf35a0b6a734589959c9763342c756bb2a80ca2bc9f6e84338584604051610c169493929190611b67565b60405180910390a150505050565b610c2c610cca565b5f73ffffffffffffffffffffffffffffffffffffffff168173ffffffffffffffffffffffffffffffffffffffff1603610c9c575f6040517f1e4fbdf7000000000000000000000000000000000000000000000000000000008152600401610c939190611185565b60405180910390fd5b610ca581610d51565b50565b610cb0610cca565b826005819055508160068190555080600781905550505050565b610cd2610e12565b73ffffffffffffffffffffffffffffffffffffffff16610cf06108b9565b73ffffffffffffffffffffffffffffffffffffffff1614610d4f57610d13610e12565b6040517f118cdaa7000000000000000000000000000000000000000000000000000000008152600401610d469190611185565b60405180910390fd5b565b5f5f5f9054906101000a900473ffffffffffffffffffffffffffffffffffffffff169050815f5f6101000a81548173ffffffffffffffffffffffffffffffffffffffff021916908373ffffffffffffffffffffffffffffffffffffffff1602179055508173ffffffffffffffffffffffffffffffffffffffff168173ffffffffffffffffffffffffffffffffffffffff167f8be0079c531659141344cd1fd0a4f28419497f9722a3daafe3b4186f6b6457e060405160405180910390a35050565b5f33905090565b5f5ffd5b5f5ffd5b5f819050919050565b610e3381610e21565b8114610e3d575f5ffd5b50565b5f81359050610e4e81610e2a565b92915050565b5f60208284031215610e6957610e68610e19565b5b5f610e7684828501610e40565b91505092915050565b5f73ffffffffffffffffffffffffffffffffffffffff82169050919050565b5f610ea882610e7f565b9050919050565b610eb881610e9e565b82525050565b5f81519050919050565b5f82825260208201905092915050565b8281835e5f83830152505050565b5f601f19601f8301169050919050565b5f610f0082610ebe565b610f0a8185610ec8565b9350610f1a818560208601610ed8565b610f2381610ee6565b840191505092915050565b610f3781610e21565b82525050565b5f8115159050919050565b610f5181610f3d565b82525050565b5f60e082019050610f6a5f83018a610eaf565b8181036020830152610f7c8189610ef6565b9050610f8b6040830188610f2e565b610f986060830187610f2e565b610fa56080830186610f2e565b610fb260a0830185610f2e565b610fbf60c0830184610f48565b98975050505050505050565b5f602082019050610fde5f830184610f2e565b92915050565b5f819050919050565b5f611007611002610ffd84610e7f565b610fe4565b610e7f565b9050919050565b5f61101882610fed565b9050919050565b5f6110298261100e565b9050919050565b6110398161101f565b82525050565b5f6020820190506110525f830184611030565b92915050565b61106181610e9e565b811461106b575f5ffd5b50565b5f8135905061107c81611058565b92915050565b5f5f6040838503121561109857611097610e19565b5b5f6110a585828601610e40565b92505060206110b68582860161106e565b9150509250929050565b5f6020820190506110d35f830184610f48565b92915050565b5f5ffd5b5f5ffd5b5f5ffd5b5f5f83601f8401126110fa576110f96110d9565b5b8235905067ffffffffffffffff811115611117576111166110dd565b5b602083019150836001820283011115611133576111326110e1565b5b9250929050565b5f5f602083850312156111505761114f610e19565b5b5f83013567ffffffffffffffff81111561116d5761116c610e1d565b5b611179858286016110e5565b92509250509250929050565b5f6020820190506111985f830184610eaf565b92915050565b5f6111a88261100e565b9050919050565b6111b88161119e565b82525050565b5f6020820190506111d15f8301846111af565b92915050565b6111e081610f3d565b81146111ea575f5ffd5b50565b5f813590506111fb816111d7565b92915050565b5f5f6040838503121561121757611216610e19565b5b5f61122485828601610e40565b9250506020611235858286016111ed565b9150509250929050565b5f6020828403121561125457611253610e19565b5b5f6112618482850161106e565b91505092915050565b5f5f5f6060848603121561128157611280610e19565b5b5f61128e86828701610e40565b935050602061129f86828701610e40565b92505060406112b086828701610e40565b9150509250925092565b7f4e487b71000000000000000000000000000000000000000000000000000000005f52602260045260245ffd5b5f60028204905060018216806112fe57607f821691505b602082108103611311576113106112ba565b5b50919050565b7f496e76616c69642070726f706f73616c496400000000000000000000000000005f82015250565b5f61134b601283610ec8565b915061135682611317565b602082019050919050565b5f6020820190508181035f8301526113788161133f565b9050919050565b7f4e487b71000000000000000000000000000000000000000000000000000000005f52603260045260245ffd5b7f566f74696e67206e6f7420656e646564000000000000000000000000000000005f82015250565b5f6113e0601083610ec8565b91506113eb826113ac565b602082019050919050565b5f6020820190508181035f83015261140d816113d4565b9050919050565b7f416c7265616479206578656375746564000000000000000000000000000000005f82015250565b5f611448601083610ec8565b915061145382611414565b602082019050919050565b5f6020820190508181035f8301526114758161143c565b9050919050565b7f4e487b71000000000000000000000000000000000000000000000000000000005f52601160045260245ffd5b5f6114b382610e21565b91506114be83610e21565b92508282019050808211156114d6576114d561147c565b5b92915050565b7f51756f72756d206e6f74207265616368656400000000000000000000000000005f82015250565b5f611510601283610ec8565b915061151b826114dc565b602082019050919050565b5f6020820190508181035f83015261153d81611504565b9050919050565b5f61154e82610e21565b915061155983610e21565b925082820261156781610e21565b9150828204841483151761157e5761157d61147c565b5b5092915050565b7f4e487b71000000000000000000000000000000000000000000000000000000005f52601260045260245ffd5b5f6115bc82610e21565b91506115c783610e21565b9250826115d7576115d6611585565b5b828204905092915050565b7f4d616a6f72697479206e6f7420726561636865640000000000000000000000005f82015250565b5f611616601483610ec8565b9150611621826115e2565b602082019050919050565b5f6020820190508181035f8301526116438161160a565b9050919050565b5f8151905061165881610e2a565b92915050565b5f6020828403121561167357611672610e19565b5b5f6116808482850161164a565b91505092915050565b7f4e6565642050454f20746f2070726f706f7365000000000000000000000000005f82015250565b5f6116bd601383610ec8565b91506116c882611689565b602082019050919050565b5f6020820190508181035f8301526116ea816116b1565b9050919050565b7f4e487b71000000000000000000000000000000000000000000000000000000005f52604160045260245ffd5b5f819050815f5260205f209050919050565b5f6020601f8301049050919050565b5f82821b905092915050565b5f6008830261177a7fffffffffffffffffffffffffffffffffffffffffffffffffffffffffffffffff8261173f565b611784868361173f565b95508019841693508086168417925050509392505050565b5f6117b66117b16117ac84610e21565b610fe4565b610e21565b9050919050565b5f819050919050565b6117cf8361179c565b6117e36117db826117bd565b84845461174b565b825550505050565b5f5f905090565b6117fa6117eb565b6118058184846117c6565b505050565b5b818110156118285761181d5f826117f2565b60018101905061180b565b5050565b601f82111561186d5761183e8161171e565b61184784611730565b81016020851015611856578190505b61186a61186285611730565b83018261180a565b50505b505050565b5f82821c905092915050565b5f61188d5f1984600802611872565b1980831691505092915050565b5f6118a5838361187e565b9150826002028217905092915050565b6118be82610ebe565b67ffffffffffffffff8111156118d7576118d66116f1565b5b6118e182546112e7565b6118ec82828561182c565b5f60209050601f83116001811461191d575f841561190b578287015190505b611915858261189a565b86555061197c565b601f19841661192b8661171e565b5f5b828110156119525784890151825560018201915060208501945060208101905061192d565b8683101561196f578489015161196b601f89168261187e565b8355505b6001600288020188555050505b505050505050565b5f61198e82610e21565b915061199983610e21565b92508282039050818111156119b1576119b061147c565b5b92915050565b828183375f83830152505050565b5f6119d08385610ec8565b93506119dd8385846119b7565b6119e683610ee6565b840190509392505050565b5f606082019050611a045f830187610f2e565b611a116020830186610eaf565b8181036040830152611a248184866119c5565b905095945050505050565b7f566f74696e6720636c6f736564000000000000000000000000000000000000005f82015250565b5f611a63600d83610ec8565b9150611a6e82611a2f565b602082019050919050565b5f6020820190508181035f830152611a9081611a57565b9050919050565b7f416c726561647920766f746564000000000000000000000000000000000000005f82015250565b5f611acb600d83610ec8565b9150611ad682611a97565b602082019050919050565b5f6020820190508181035f830152611af881611abf565b9050919050565b7f4e6f20766f74696e6720706f77657200000000000000000000000000000000005f82015250565b5f611b33600f83610ec8565b9150611b3e82611aff565b602082019050919050565b5f6020820190508181035f830152611b6081611b27565b9050919050565b5f608082019050611b7a5f830187610f2e565b611b876020830186610eaf565b611b946040830185610f48565b611ba16060830184610f2e565b9594505050505056fea264697066735822122065f04711970b639194ba5bb128c5bb972b29698cb355c0917548c8f0a74de7ca64736f6c634300081c0033","linkReferences":{}},"methodIdentifiers":{"createProposal(string)":"49c2a1a6","dcs()":"95142ede","executeProposal(uint256)":"0d61b519","hasVoted(uint256,address)":"43859632","majorityPercentage()":"599c7bd1","owner()":"8da5cb5b","peoToken()":"301d9bef","proposals(uint256)":"013cf08b","quorum()":"1703a018","renounceOwnership()":"715018a6","transferOwnership(address)":"f2fde38b","updateParameters(uint256,uint256,uint256)":"f76d50ad","vote(uint256,bool)":"c9d27afe","votingPeriod()":"02a251a3"},"id":28}