{"abi":[{"type":"constructor","inputs":[{"name":"_peoToken","type":"address","internalType":"address"},{"name":"_dcs","type":"address","internalType":"address"}],"stateMutability":"nonpayable"},{"type":"function","name":"createProposal","inputs":[{"name":"description","type":"string","internalType":"string"}],"outputs":[],"stateMutability":"nonpayable"},{"type":"function","name":"dcs","inputs":[],"outputs":[{"name":"","type":"address","internalType":"contract IDCS"}],"stateMutability":"view"},{"type":"function","name":"executeProposal","inputs":[{"name":"proposalId","type":"uint256","internalType":"uint256"}],"outputs":[],"stateMutability":"nonpayable"},{"type":"function","name":"hasVoted","inputs":[{"name":"","type":"uint256","internalType":"uint256"},{"name":"","type":"address","internalType":"address"}],"outputs":[{"name":"","type":"bool","internalType":"bool"}],"stateMutability":"view"},{"type":"function","name":"majorityPercentage","inputs":[],"outputs":[{"name":"","type":"uint256","internalType":"uint256"}],"stateMutability":"view"},{"type":"function","name":"owner","inputs":[],"outputs":[{"name":"","type":"address","internalType":"address"}],"stateMutability":"view"},{"type":"function","name":"peoToken","inputs":[],"outputs":[{"name":"","type":"address","internalType":"contract IPeoCoin"}],"stateMutability":"view"},{"type":"function","name":"proposals","inputs":[{"name":"","type":"uint256","internalType":"uint256"}],"outputs":[{"name":"proposer","type":"address","internalType":"address"},{"name":"description","type":"string","internalType":"string"},{"name":"startTime","type":"uint256","internalType":"uint256"},{"name":"endTime","type":"uint256","internalType":"uint256"},{"name":"yesVotes","type":"uint256","internalType":"uint256"},{"name":"noVotes","type":"uint256","internalType":"uint256"},{"name":"executed","type":"bool","internalType":"bool"}],"stateMutability":"view"},{"type":"function","name":"quorum","inputs":[],"outputs":[{"name":"","type":"uint256","internalType":"uint256"}],"stateMutability":"view"},{"type":"function","name":"renounceOwnership","inputs":[],"outputs":[],"stateMutability":"nonpayable"},{"type":"function","name":"transferOwnership","inputs":[{"name":"newOwner","type":"address","internalType":"address"}],"outputs":[],"stateMutability":"nonpayable"},{"type":"function","name":"updateParameters","inputs":[{"name":"_votingPeriod","type":"uint256","internalType":"uint256"},{"name":"_quorum","type":"uint256","internalType":"uint256"},{"name":"_majorityPercentage","type":"uint256","internalType":"uint256"}],"outputs":[],"stateMutability":"nonpayable"},{"type":"function","name":"vote","inputs":[{"name":"proposalId","type":"uint256","internalType":"uint256"},{"name":"support","type":"bool","internalType":"bool"}],"outputs":[],"stateMutability":"nonpayable"},{"type":"function","name":"votingPeriod","inputs":[],"outputs":[{"name":"","type":"uint256","internalType":"uint256"}],"stateMutability":"view"},{"type":"event","name":"OwnershipTransferred","inputs":[{"name":"previousOwner","type":"address","indexed":true,"internalType":"address"},{"name":"newOwner","type":"address","indexed":true,"internalType":"address"}],"anonymous":false},{"type":"event","name":"ProposalCreated","inputs":[{"name":"proposalId","type":"uint256","indexed":false,"internalType":"uint256"},{"name":"proposer","type":"address","indexed":false,"internalType":"address"},{"name":"description","type":"string","indexed":false,"internalType":"string"}],"anonymous":false},{"type":"event","name":"ProposalExecuted","inputs":[{"name":"proposalId","type":"uint256","indexed":false,"internalType":"uint256"}],"anonymous":false},{"type":"event","name":"VoteCast","inputs":[{"name":"proposalId","type":"uint256","indexed":false,"internalType":"uint256"},{"name":"voter","type":"address","indexed":false,"internalType":"address"},{"name":"support","type":"bool","indexed":false,"internalType":"bool"},{"name":"weight","type":"uint256","indexed":false,"internalType":"uint256"}],"anonymous":false},{"type":"error","name":"OwnableInvalidOwner","inputs":[{"name":"owner","type":"address","internalType":"address"}]},{"type":"error","name":"OwnableUnauthorizedAccount","inputs":[{"name":"account","type":"address","internalType":"address"}]}],"bytecode":{"object":"0x60806040526203f480600555683635c9adc5dea000006006556032600755348015610028575f5ffd5b50604051610ff3380380610ff383398101604081905261004791610111565b338061006c57604051631e4fbdf760e01b81525f600482015260240160405180910390fd5b610075816100a7565b50600180546001600160a01b039384166001600160a01b03199182161790915560028054929093169116179055610142565b5f80546001600160a01b038381166001600160a01b0319831681178455604051919092169283917f8be0079c531659141344cd1fd0a4f28419497f9722a3daafe3b4186f6b6457e09190a35050565b80516001600160a01b038116811461010c575f5ffd5b919050565b5f5f60408385031215610122575f5ffd5b61012b836100f6565b9150610139602084016100f6565b90509250929050565b610ea48061014f5f395ff3fe608060405234801561000f575f5ffd5b50600436106100e5575f3560e01c8063599c7bd11161008857806395142ede1161006357806395142ede146101e9578063c9d27afe146101fc578063f2fde38b1461020f578063f76d50ad14610222575f5ffd5b8063599c7bd1146101c8578063715018a6146101d15780638da5cb5b146101d9575f5ffd5b80631703a018116100c35780631703a01814610144578063301d9bef1461014d578063438596321461017857806349c2a1a6146101b5575f5ffd5b8063013cf08b146100e957806302a251a3146101185780630d61b5191461012f575b5f5ffd5b6100fc6100f7366004610a83565b610235565b60405161010f9796959493929190610a9a565b60405180910390f35b61012160055481565b60405190815260200161010f565b61014261013d366004610a83565b610315565b005b61012160065481565b600154610160906001600160a01b031681565b6040516001600160a01b03909116815260200161010f565b6101a5610186366004610b21565b600460209081525f928352604080842090915290825290205460ff1681565b604051901515815260200161010f565b6101426101c3366004610b4b565b610524565b61012160075481565b610142610739565b5f546001600160a01b0316610160565b600254610160906001600160a01b031681565b61014261020a366004610bb9565b61074c565b61014261021d366004610beb565b6109b5565b610142610230366004610c0b565b6109f2565b60038181548110610244575f80fd5b5f918252602090912060079091020180546001820180546001600160a01b0390921693509061027290610c34565b80601f016020809104026020016040519081016040528092919081815260200182805461029e90610c34565b80156102e95780601f106102c0576101008083540402835291602001916102e9565b820191905f5260205f20905b8154815290600101906020018083116102cc57829003601f168201915b505050600284015460038501546004860154600587015460069097015495969295919450925060ff1687565b60035481106103605760405162461bcd60e51b8152602060048201526012602482015271125b9d985b1a59081c1c9bdc1bdcd85b125960721b60448201526064015b60405180910390fd5b5f6003828154811061037457610374610c6c565b905f5260205f2090600702019050806003015442116103c85760405162461bcd60e51b815260206004820152601060248201526f159bdd1a5b99c81b9bdd08195b99195960821b6044820152606401610357565b600681015460ff16156104105760405162461bcd60e51b815260206004820152601060248201526f105b1c9958591e48195e1958dd5d195960821b6044820152606401610357565b5f816005015482600401546104259190610c94565b905060065481101561046e5760405162461bcd60e51b8152602060048201526012602482015271145d5bdc9d5b481b9bdd081c995858da195960721b6044820152606401610357565b5f81836004015460646104819190610cad565b61048b9190610cc4565b905060075481116104d55760405162461bcd60e51b815260206004820152601460248201527313585a9bdc9a5d1e481b9bdd081c995858da195960621b6044820152606401610357565b60068301805460ff191660011790556040517f712ae1383f79ac853f8d882153778e0260ef8f03b504e2866e0593e04d2b291f906105169086815260200190565b60405180910390a150505050565b6001546040516370a0823160e01b81523360048201525f916001600160a01b0316906370a0823190602401602060405180830381865afa15801561056a573d5f5f3e3d5ffd5b505050506040513d601f19601f8201168201806040525081019061058e9190610ce3565b116105d15760405162461bcd60e51b81526020600482015260136024820152724e6565642050454f20746f2070726f706f736560681b6044820152606401610357565b60036040518060e00160405280336001600160a01b0316815260200184848080601f0160208091040260200160405190810160405280939291908181526020018383808284375f92019190915250505090825250426020820181905260055460409092019161063f91610c94565b81525f602080830182905260408301829052606090920181905283546001808201865594825290829020835160079092020180546001600160a01b0319166001600160a01b039092169190911781559082015191929091908201906106a49082610d5a565b506040820151600282015560608201516003808301919091556080830151600483015560a0830151600583015560c0909201516006909101805460ff1916911515919091179055547f7585f467599d0f008985f231af99293be388626ac16ca59505c2f8f88969cd639061071a90600190610e15565b33848460405161072d9493929190610e28565b60405180910390a15050565b610741610a08565b61074a5f610a34565b565b60035482106107925760405162461bcd60e51b8152602060048201526012602482015271125b9d985b1a59081c1c9bdc1bdcd85b125960721b6044820152606401610357565b5f600383815481106107a6576107a6610c6c565b905f5260205f2090600702019050806002015442101580156107cc575080600301544211155b6108085760405162461bcd60e51b815260206004820152600d60248201526c159bdd1a5b99c818db1bdcd959609a1b6044820152606401610357565b5f83815260046020908152604080832033845290915290205460ff16156108615760405162461bcd60e51b815260206004820152600d60248201526c105b1c9958591e481d9bdd1959609a1b6044820152606401610357565b5f838152600460208181526040808420338086529252808420805460ff191660011790556002549051630d47875d60e41b8152928301919091526001600160a01b03169063d47875d090602401602060405180830381865afa1580156108c9573d5f5f3e3d5ffd5b505050506040513d601f19601f820116820180604052508101906108ed9190610ce3565b90505f81116109305760405162461bcd60e51b815260206004820152600f60248201526e2737903b37ba34b733903837bbb2b960891b6044820152606401610357565b82156109545780826004015f8282546109499190610c94565b9091555061096d9050565b80826005015f8282546109679190610c94565b90915550505b6040805185815233602082015284151591810191909152606081018290527fcbdf6214089cba887ecbf35a0b6a734589959c9763342c756bb2a80ca2bc9f6e90608001610516565b6109bd610a08565b6001600160a01b0381166109e657604051631e4fbdf760e01b81525f6004820152602401610357565b6109ef81610a34565b50565b6109fa610a08565b600592909255600655600755565b5f546001600160a01b0316331461074a5760405163118cdaa760e01b8152336004820152602401610357565b5f80546001600160a01b038381166001600160a01b0319831681178455604051919092169283917f8be0079c531659141344cd1fd0a4f28419497f9722a3daafe3b4186f6b6457e09190a35050565b5f60208284031215610a93575f5ffd5b5035919050565b60018060a01b038816815260e060208201525f87518060e08401528060208a0161010085015e5f6101008285010152610100601f19601f8301168401019150508660408301528560608301528460808301528360a083015282151560c083015298975050505050505050565b80356001600160a01b0381168114610b1c575f5ffd5b919050565b5f5f60408385031215610b32575f5ffd5b82359150610b4260208401610b06565b90509250929050565b5f5f60208385031215610b5c575f5ffd5b823567ffffffffffffffff811115610b72575f5ffd5b8301601f81018513610b82575f5ffd5b803567ffffffffffffffff811115610b98575f5ffd5b856020828401011115610ba9575f5ffd5b6020919091019590945092505050565b5f5f60408385031215610bca575f5ffd5b8235915060208301358015158114610be0575f5ffd5b809150509250929050565b5f60208284031215610bfb575f5ffd5b610c0482610b06565b9392505050565b5f5f5f60608486031215610c1d575f5ffd5b505081359360208301359350604090920135919050565b600181811c90821680610c4857607f821691505b602082108103610c6657634e487b7160e01b5f52602260045260245ffd5b50919050565b634e487b7160e01b5f52603260045260245ffd5b634e487b7160e01b5f52601160045260245ffd5b80820180821115610ca757610ca7610c80565b92915050565b8082028115828204841417610ca757610ca7610c80565b5f82610cde57634e487b7160e01b5f52601260045260245ffd5b500490565b5f60208284031215610cf3575f5ffd5b5051919050565b634e487b7160e01b5f52604160045260245ffd5b601f821115610d5557805f5260205f20601f840160051c81016020851015610d335750805b601f840160051c820191505b81811015610d52575f8155600101610d3f565b50505b505050565b815167ffffffffffffffff811115610d7457610d74610cfa565b610d8881610d828454610c34565b84610d0e565b6020601f821160018114610dba575f8315610da35750848201515b5f19600385901b1c1916600184901b178455610d52565b5f84815260208120601f198516915b82811015610de95787850151825560209485019460019092019101610dc9565b5084821015610e0657868401515f19600387901b60f8161c191681555b50505050600190811b01905550565b81810381811115610ca757610ca7610c80565b8481526001600160a01b03841660208201526060604082018190528101829052818360808301375f818301608090810191909152601f909201601f19160101939250505056fea2646970667358221220434ef66606d1b8f1ee4e9c3a98bebc4cd5ffc521be20d28fb2aa6962c2fa6f7064736f6c634300081c0033","linkReferences":{}},"methodIdentifiers":{"createProposal(string)":"49c2a1a6","dcs()":"95142ede","executeProposal(uint256)":"0d61b519","hasVoted(uint256,address)":"43859632","majorityPercentage()":"599c7bd1","owner()":"8da5cb5b","peoToken()":"301d9bef","proposals(uint256)":"013cf08b","quorum()":"1703a018","renounceOwnership()":"715018a6","transferOwnership(address)":"f2fde38b","updateParameters(uint256,uint256,uint256)":"f76d50ad","vote(uint256,bool)":"c9d27afe","votingPeriod()":"02a251a3"},"id":28}